:400000000080002011000000091100000911000008B5044B1A6803F53F5302331A6001F08DF800BFFA46004010B5054C237833B9044B13B10448AFF300800123237010BDBD
:400040006085FF1F00000000D43A0000084B10B51BB108490848AFF300800848036803B910BD074B002BFBD0BDE81040184700BF000000006485FF1FD43A0000C880FF1FAE
:4000800000000000034B1B78034A136801331360704700BF034F0040C485FF1F0122014B1A707047C885FF1F10B5022002F02AF800240FE001F078FD002001F085FD01F06E
:4000C0009BFD01F0CFFD1A4A13681844106001F073FD0134032CEDDD154A1368002B00DA03339B101360002002F00CF8002002F025F8104B187801F019FF00240FE001F001
:4001000053FD002001F060FD01F076FD01F0AAFD074A53681844506001F04EFD0134032CEDDD002001F002FF0022014B5A6010BD7C85FF1FCC80FF1F70B5012001F0FEFFBF
:40014000012001F0DFFF2C4E33682C4C6068181AC0B201F0EBFE01F027FD002001F034FD01F02AFD01F048FD01F07CFD2368C51A002001F0DBFE284602F000FE0546326816
:40018000C2EB0222D3001E4880FB03201844DB17C3EBE01002F0F2FD0646606802F0EEFD0146304602F034FD0146284602F0EEFE144B186002F072FA0BA3D3E9002302F0B2
:4001C000EBFB0022104B02F009F909A3D3E9002302F0E2FB00220D4B02F002F902F0C4FC70BD00BFAFF300800000000000F06940FCA9F1D24D6240BFCC80FF1F7C85FF1FEF
:4002000081808080CC85FF1F0000F03F0000394070B50C460146204602F0FAFC0646002102F0BCFF70B1194B9D681949284602F097FF38B12946174B586802F0EBFC134BED
:40024000986012E00021304602F08AFF68B10F4B9D680021284602F0A1FF30B10D4B5968284602F0D5FC094B98600021204602F06DFF10B10022054B9A60044B986802F01F
:4002800097FFC0B201F07CFA70BD00BF7C85FF1F00007F43CC80FF1F70B5B4B04FF4FA6001F00EFA00F0ECFF01F08AFA01F068FC01F06EFE01F00AFF01F030FF62B6A44859
:4002C00001F0D0FFA34801F0F5FF01F09DFF3C2000F074FBFFF7E8FE9F4801F0E7FE0DF1060001F0E3FEBDF806309C4A92899B1A9BB20A339BB2142B05D9FFF7D5FEBDF8A4
:400300000620964B9A81FFF717FF0446934B1B69062B00F2CE80DFE803F0041636557392AE000021FFF774FF8D4B02938D4B93F90030002B00F0BD800122884B1A610022EA
:40034000884B1A70B5E08849FFF762FF874A02AB07CA03C323F8022B120C1A708449204602F01CFF002800F0A4808249204602F0F7FE002800F09D800222784B1A61002211
:400380007D4B1A6095E07849FFF742FF7A4E31687A4D85FB0132C917C1EBA212C2F10C02774902A802F06AFF336885FB0325DB17C3EBA513C3F10C03002B7ADC0322674B37
:4003C0001A6176E06F49FFF723FF6F4A02AB07CA03C323F8022B120C1A706C49204602F0DDFE002865D06A49204602F0B9FE00285FD00422594B1A6100225F4B1A6058E04E
:400400006049FFF705FF5C4E31685C4D85FB0132C917C1EBA212C2F102025E4902A802F02DFF336885FB0325DB17C3EBA513C3F10203002B3DDC0522484B1A6139E056498F
:40044000FFF7E6FE554A02AB07CA03C323F8022B120C1A705249204602F0A0FE48B35149204602F07DFE20B306223C4B1A610022414B1A601DE04849FFF7CAFE3E4E316840
:400480003E4D85FB0132C917C1EBA212C2F11E02454902A802F0F2FE336885FB0325DB17C3EBA513C3F11E03002B02DC00222B4B1A6100F039FA022000F0A6FA012000F05F
:4004C000ABFA0021084600F099FA384800F024FC374B1D68284602F06BFE064602F04EFC0146284602F094FB324902F09BFC02F05FFE314D0346324629461BA802F0BEFED5
:400500001BA800F017FC2D4800F006FC204602F04FFE064602F032FC0146204602F078FB244902F07FFC02F043FE0346324629461BA802F0A3FE1BA800F0FCFB02A800F094
:40054000EBFB00F0FFF9642001F0BAF8C7E600BF850000009D0000008885FF1F7C85FF1F6F666600C885FF1F0000BD42D83A00000000B9420000C142C485FF1FD34D621000
:40058000E43A000000005C42F03A00000000544200006442FC3A000000009042083B000000008C4200009442143B0000203B0000CC85FF1F0000C842243B00002C3B000041
:4005C00083B27F2B3CD800293ADB3F2938DC012A03D09AB1022A23D070471A4A0B46002900DACB1DDB1000EBC31001F00701012303FA01F1135C194311547047114A0B4647
:40060000002900DACB1DDB1000EBC31001F00701012303FA01F1135C23EA010111547047084A0B46002900DACB1DDB1000EBC31001F00701012303FA01F1135C59401154D0
:40064000704700BFD580FF1FF0B5BDF81440904267D10D46002900DACD1DED1000EBC510444F07441846002B00DAD81DC01002EBC012404810443A4650E0BA4218D13E4D1B
:400680000D4003D5013D65F007050135EEB2F5186D1AEDB2062D00D90725AD1B01354FF0010E0EFA05F5013D05FA06F6F6B20EE082420CD1304D1D4003D5013D65F0070526
:4006C00001352DB2012606FA05F56E1EF6B2BA4201D0824212D1012C03D034B1022C09D01BE015783543157017E0157825EA0605157012E01578754015700EE0012C03D0E1
:400700002CB1022C06D008E0FF25157005E00025157002E01578ED43157080328242ACD9F0BD0B46002900DACB1DDB1000EBC313104D2B44121A1A4401F00701012000FA9A
:4007400001F1CDB212E0012C03D034B1022C09D00BE018782843187007E0187820EA0100187002E018786840187001339342EAD9F0BD00BFD580FF1F07000080B1F9002014
:40078000154B1B78022B0CD0032B19D0012B21D1B0F900300B80114B1B889A1A013A02807047B0F900200D4B1B889B1A013B0380B1F900200A4B1B889B1A013B0B80704750
:4007C00010B4B0F90040064B1B881B1B013B0B80028010BC704700BFD285FF1FD085FF1FD485FF1F10B584B0ADF80E00ADF80C10ADF80A20ADF80830904203D009B21BB2F2
:40080000994271D1394B1B78012B01D0032B1AD1002869DB364BB3F90030984264DA002A62DB9A4260DABDF90C30002B5CDB314AB2F90020934257DABDF90830002B53DB29
:400840009A421ADC50E0BDF90C30002B4CDB2849B1F900108B4247DABDF90830002B43DB994241DD00283FDB224BB3F9003098423ADA002A38DB9A4236DA03A90DF10E008F
:40088000FFF77CFF02A90DF10A00FFF777FFBDF90E30BDF90A20934205D1BDF90800BDF90C10884207DBBDF90C00BDF9081088420DD193420BDDADF80E20ADF80A30BDF990
:4008C0000C30BDF80820ADF80C20ADF80830BDF90830BDF90A20BDF90C10BDF90E00BDF818400094FFF7B0FE04B010BDD285FF1FD485FF1FD085FF1FF8B507460E46002139
:40090000084B187800F038FE0024FF2504E0385D00F08EFE05460134B442F8DB00F06CFE2846F8BD9085FF1F10B5054C4FF480620021601C02F099FC4023237010BD00BF97
:40094000D480FF1F00B583B00A4B186800909A889B79ADF804208DF8063007216846FFF7CBFF40F201410448FFF7C6FF03B05DF804FB00BF303B0000D480FF1F0A4B18805D
:400980000A4B19800A4B58809980002209490A70DA801A8101229A724FF6FF719981D981054B1A70704700BFD085FF1FD485FF1F9085FF1FD285FF1FD685FF1F30B589B04F
:4009C0000C4B187040218020FFF7D8FF01AC0A4D55F8080F6968AA68EB680FC42869696903C42B8B23801A2101A8FFF785FF09B030BD00BF9085FF1F303B0000014BD88051
:400A0000198170479085FF1F08B90120FFE7014B987270479085FF1F014B9881D88170479085FF1F10B582B0ADF80600ADF80410002819DB0D4BB3F90230984214DA0BB250
:400A4000002B11DB0949B1F904108B420CDA144601A90DF10600FFF791FE2246BDF90410BDF90600FFF7ACFD02B010BD9085FF1F2DE9F04F85B005460E461746BDF838203D
:400A80000292B84201D0994207D1029A00923A4631462846FFF7A6FE52E0C1EB0308B8F1000FB8BFC8F10008C0EB0709B9F1000FB8BFC9F10009C84504DD3A461F46134644
:400AC0000D460646BD4205DD32461E4613462A463D461746C5EB070B1FFA8BFB0FFA8BF4C6EB030ABAF1000FB8BFCAF1000A04EBD47464109E4202DA012303931EE04FF0F6
:400B0000FF3303931AE0C84505DD029A29463046FFF788FF04E0029A31462846FFF782FFCAEB0404A3B21CB2002C05DA039A164436B20BEB030424B201352DB2BD42E2DDBA
:400B400005B0BDE8F08F00BF2DE9F04383B005460E4617469846BDF8289093420FDC0C461EE006EB0803013BCDF800901BB2224631462046FFF77CFF013424B200E00446C5
:400B8000EB199C42EDDB0FE0EA19013ACDF80090234612B221462846FFF76AFF013424B206EB08039C42EFDB03B0BDE8F08300BF2DE9F04F85B0BDF838B09DF83C60364C95
:400BC000B4F90240844263DD334CB4F904408C425EDD06EB46056C000444012C58D401EBC604012C54D4984603928A46814600274CE0052F08D0039B03EB83033B44274AC8
:400C0000134493F8245000E0002500243AE015F0010F19D0012E09D104EB0A0107EB0900424609B200B2FFF7FDFE28E0B0B232B204FB00A107FB0090CDF80080134609B260
:400C400000B2FFF781FF1AE0D84518D0012E09D104EB0A0107EB09005A4609B200B2FFF7E1FE0CE0B0B232B204FB00A107FB0090CDF800B0134609B200B2FFF765FF6D08FF
:400C8000013464B2072CC2DD01377FB2052FB0DD05B0BDE8F08F00BF9085FF1F303B00000A2808D11A4B997A1A8902EBC1021A810022DA8070470D28FCD030B583B00246B2
:400CC000134CE389B4F90810B4F90600A57A0195A5890095FFF76CFFA27A91B201EB41035800E38803441BB2E3800A48007868B1A2EB82025000B4F902201044834205DD01
:400D0000228902EBC10121810022E28003B030BD9085FF1FD685FF1F70B5064602F0D2FA0546002403E0305DFFF7BAFF0134AC42F9D370BD08B5FFF7EFFF0A20FFF7B0FF9E
:400D400008BD00BFFEE700BFF0B40022174611E050F82760F3B226F0FF0608E001EB420511F812406D78A5550132013BDBB2002BF4D101371A2FEBD9F0BC7047064B1B78DB
:400D8000DBB203F00701054A11701B09013213706622034B1A707047CF0100496E5800407658004008B50A46002102F05EFA08BD08B502F04FFA08BD38B500242F4B1C809C
:400DC000502202331A70012202331A80182202331A7008222A492B48FFF7EAFF02222A4B1A7008224FF040231A70032103F500731970264B1B78DBB225490B70254B1A80D3
:400E000041F25122023B1A8019250CE0224B1B7803F0010343EA440404F003044FF4F07001F056FA013D0DB1032CEFD115B90320FFF788FF194B4FF480721A8007221A7081
:400E4000002217490A704820023108701A700222033B1A7004220A331A70124A137843F003031370013A137843F002031370013A137843F08003137038BD00BF8040004029
:400E800004020048004100400043004008010049A146004022420040254200400440004006400040A2430040022814D810B44000C0B2094B53F820101A18147E0A782243E7
:400EC0000A700130C0B253F820201844017E13780B43137010BC704750400000022816D810B44000C0B20A4B53F820101A18147E0A7822EA04020A700130C0B253F82020A2
:400F00001844017E137823EA0103137010BC704750400000022818D810B44000C0B20B4B03EB8002116A1A1892F838400A7822430A700130C0B203EB8002126A184490F8CB
:400F4000381013780B43137010BC70475040000002281AD810B44000C0B20C4B03EB8002116A1A1892F838400A7822EA04020A700130C0B203EB8002126A184490F83810E9
:400F8000137823EA0103137010BC704750400000012818D810B44000C0B20B4B03EB8002116C1A1892F850400A7822430A700130C0B203EB8002126C184490F85010137820
:400FC0000B43137010BC70475040000001281AD810B44000C0B20C4B03EB8002116C1A1892F850400A7822EA04020A700130C0B203EB8002126C184490F85010137823EA71
:401000000103137010BC70475040000070B572B600240CE02C4863001A19510001440A46B1F85810506DFFF7BDFE0134E4B2092CF0D926494FF09040FFF786FE0A26244BEA
:401040001E70012503F521731D7004212148FFF7A9FE214A137843F0020313701032137843F0020313701D4C237843F040032370A2F58632513A137843F01003137032468C
:4010800017491848FFF794FE082217491748FFF78FFE082216491748FFF78AFE164A137843F008031370154E61233370FFF784FE81233370124B1D70FFF760FE0E2221464C
:4010C0001048FFF775FE70BD504000006C000048835800405076004003500140A0430040E801004800510040F401004812510040FC0100482251004022430040004800401F
:4011000004000840B0430040FEE700BF08B5094B1A681044084BC31A802B02DC054B186005E002F06BF80C2303604FF0FF32104608BD00BFD884FF1FF885FF1F08B5104EDE
:40114000104D16E029686B68AC68002204E051F8040B43F8040B0432A242F8D1E868002203E0002143F8041B04328242F9D11035013E002EE6D102F047F8FFF78DF8FEE78B
:40118000010000003C41000008B5114A114B1A60114A136843F40073136000230AE0032B03D80E4A52F8231000E00D490D4A42F8231001332F2BF2D90B4B1A780B4B1A70CA
:4011C000084A0B4B1A60FFF721FF00F05DFA08BD0004FA050CED00E014ED00E000000000091100000080FF1FBC760040C080FF1F08ED00E010B50222114B1A7081220E3BD6
:401200001A70082202331A70042211331A70002401331C704FF400420A4B1A6007210F2000F082FA08490F2000F06AFA1022074B1A70074B1C70074B1C70074B1C7010BD03
:40124000D649004080E100E0A9120000D785FF1FD885FF1FDA85FF1FDB85FF1F08B501F03FF8064A137843F0040313701032137843F00403137001F037F808BDA54300400F
:4012800008B5074B1B7823B9FFF7B4FF0122044B1A70FFF7E3FF4FF40042024B1A6008BDA085FF1F00E100E038B5A54B1C78A54B1B7813F0400F00F03A81E4B214F0010F83
:4012C00000F01D819F4B1B78453B052B00F21481DFE813F006008200120112010600DF0004F0DF0504F00A04082C42D1954B1B78DBB2452B35D1944B1B7813F0FF0F10D055
:40130000924B1B681B78DBB2914A137004228C4B1A7001228F4B1A7046228A4B1A702C46EDE08D4B1B7813F0020F0DD08B4A137843F00A0313706022824B1A704FF40042DE
:40134000874B1A602C46DAE0864A137843F0100313701022844B1A700422023B1A702C46CDE00022764B1A704A22764B1A702C46C5E00A2C2BD1794A137843F0A003137026
:40138000754B1B7813F0020F14D06E4B1B7813F0080F01D0092300E00A23704A11780B4313706022674B1A704FF400426C4B1A602C46A4E06B4A137843F0100313701022B9
:4013C000694B1A700422023B1A702C4697E0002000F074F92C4692E014F0020F36D15D4B1A78D2B2584B1B78DBB29A4210D2594A1378DBB255490968CB5CDBB254490B7087
:4014000004214F4B197013780133DBB2137076E0514B1B7813F0020F0CD0504A137843F00A0313706022474B1A704FF400424C4B1A6064E04B4A137843F0100313701022A5
:40144000494B1A700422023B1A7058E0424B1B7813F0020F0CD0414A137843F09A0313706022384B1A704FF400423D4B1A6046E03C4A137843F01003137010223A4B1A7059
:401480000422023B1A70354A137843F09003137035E0364A1378DBB2354908682C490978C9B2C15413780133DBB213701278D2B2304B1B78DBB29A4203D21022204B1A707B
:4014C0001DE0254B1B7813F0020F0CD0234A137843F00903137060221A4B1A704FF400421F4B1A600BE01F4A137843F0100313700022134B1A7002E0002000F0DFF814F0E9
:40150000200F1CD00F4B1B7813F0080F01D0012300E00223114A11780B431370114A137803F0EF0313701022064B1A7038BD054B1B7813F0100F02D11022024B1A7038BDB4
:40154000D7490040D785FF1FE085FF1FE485FF1FD8490040DB85FF1FD985FF1FD885FF1F80E100E0D6490040D9490040DA85FF1FDC85FF1FE885FF1F1A4B1B78DBB2102B68
:4015800029D1194B1B7813F0080F26D14FF40042164B1A604000C0B229B140F001004922104B1A7002E045220E4B1A70104B1870012201331A700F4B1B7813F0010FFAD002
:4015C0000C4B1B7803F00A030A2B08D11022054B1A700320704702207047012070470020704700BFD785FF1FD949004080E100E0D8490040D74900400A4B1B7813F0040FEA
:401600000ED01023074A13700421023A1170064A1370064B1B7813F0210FFAD00020704702207047D9490040D785FF1FD7490040114B1B7813F0040F1BD0104B187004224A
:40164000013B1A7046220E4B1A700E4B1B7813F0010FFAD00B4B1B7813F0020F04D16022074B1A70002070476022054B1A70032070470220704700BFD9490040D8490040F8
:40168000D785FF1FD74900400B4A7F2313708021517007E0DA0002F1804202F5F042013BDBB21370002BF5D1DB0003F1804303F5F04300221A707047DC84FF1F01BE704784
:4016C00010B5044605E0084B186800F001FEA4F50044B4F5004FF6D8034B586800FB04F000F0F6FD10BD00BFE484FF1F08B5034B1B7A00FB03F000F0EBFD08BDE484FF1FEE
:4017000070B504460E46074B1D681F2802D90020FFF7D4FF04F01F04103455F8240045F8246070BD08ED00E038B504460D46072902D90020FFF7C2FF1F2C02D90020FFF7CD
:40174000BDFF04F01F0000F1604000F564406D01EDB2057038BD00BF024A137843F08003137070477B640040014B1870704700BF0B640040014B1870704700BF4B64004022
:40178000014B1870704700BF2B64004008B50B4A137803F0C00343F0090313702032137843F001031370FF20FFF7DEFFFF20FFF7E1FF0020FFF7E4FF08BD00BF7B640040E1
:4017C00008B5054B1B7823B9FFF7E0FF0122024B1A70FFF7C1FF08BDA185FF1F10B59DF80840012C51D1013809282ED8DFE800F0052D2D052D2D0F192D230F2B03D925480E
:40180000007840B222E02448007840B21EE00F2B03D92248007840B218E02148007840B214E00F2B03D91F48007840B20EE01E48007840B20AE00F2B03D91C48007840B24C
:4018400004E01B48007840B200E0002001EB401101FB02F1C90B8AB20D2B0BD8C3F10E0289B211418AB2611E124800EB810101338B7005E0631E0F4901EB83030F219970F5
:40188000013C0C4B23F8242010BD0020FFF716FF10BD00BF180100491C010049190100491D0100491A0100491E0100491B0100491F010049A485FF1FF8B5074600F010FD47
:4018C00006460D4D2B7843F003032B700B4C237843F0030323700A4B1F700320FFF706FF2B7803F0FC032B70237803F0FC032370304600F0F9FCF8BDF8460040F9460040AE
:40190000925800400022304B1A7101285BD170B574222E4B1A70002402331C700A2601331E707F232A4A13700132147001321370284B1C7001331C7001331C7001250A3383
:401940001D70502203F527631A70272201331A702C2201331A7001331C70552203331A705A2201331A70052201331A70022202331A70122201331A70282201331A70EB2249
:4019800001331A704420FFF797FF5822124B1A7001331C7005331D7001331D7001331C7001331E704FF4FA220C4B1A602946284600F0AEF92946072000F02EFA08491D2070
:4019C000FFF79EFE70BD7047A485FF1F004E0040044E0040084E004094580040EC85FF1FDD1C0000F0B583B0274D01272F70274E00247471102000F079F9102000F0FAF98A
:401A000007211D20FFF790FE0420214B187001331C7007331C701F4A137843F0180313701D4B1C7003F2F5231C7001331C700A22A3F209331A7001331C7002331C705B2288
:401A400005331A705E2201331A7004331C701423124A137000974FF4004249F2DA01FFF7BDFE2B78013B06EB83039A780C4B1A702B78013B36F823200A4B1A802878FFF78C
:401A800041FF03B0F0BD00BFF484FF1FA485FF1F96580040075B004093580040014E00400E4E00400C4E004070B500F019FC06462A4B1B782A4B1A7842F001021A701A7854
:401AC00042F010021A7010331A7842F001021A701A7842F010021A70224D2B7843F002032B70214C237843F0020323701F4A137843F0030313700320FFF7F8FD2B7803F018
:401B0000FD032B70237803F0FD032370184A137843F0060313707A22164B1A70164A137843F0020313701032137843F0020313700F3A137843F0010313701032137843F0FA
:401B4000010313704FF000530C4A1360A2F5C0721360304600F0C8FB70BD00BFF484FF1FAA430040F8460040F9460040915800407758004082580040A143004080E200E0BA
:401B800008B5084B9B794BB9064BDB7913F0FF0F01D1FFF727FF0122024B9A71FFF784FF08BD00BFA485FF1F024A137843F0010313707047004E0040024A137803F0FE03F9
:401BC00013707047004E0040094B1B7913F0FF0F03D0074B5B79DBB203E0064B1B7803F00103012B01D00028EED01846704700BFA485FF1F014E0040154B1B7803F0030367
:401C0000012B07D8134B1888023B1B889BB243EA004013E0022B0AD10E4B1888023B1B7843EA00430C4A107843EA002006E00B4B188883B2074A108843EA0040084B1B7954
:401C400013F0FF0F02D00022054B5A71704700BF144E0040124E0040114E0040104E0040A485FF1F10B4194B1B78DBB2012B08D0164B1B78DBB2022B05D0144B1B78102314
:401C800002E0142300E01023102B02D0142B07D003E0202147F6122406E001210C4C03E04FF4FA714FF4FA640A4B1B6893FBF1F100FB04F090FBF1F3074A926802FB04F2C8
:401CC00092FBF1F0181A10BC704700BFF484FF1F40420F00EC85FF1FA485FF1F704700BF014B188880B2704780400040034B1A7800F0F80010431870704700BF824000409F
:401D0000024B187800F00700704700BF8240004070B505460E46FFF7F3FF0446FFF7E0FFA84256D02B4B1B7803F0010294B900B185B938B9284B1D80284A137803F0BF038E
:401D4000137070BD254A137843F040031370224B1D8070BD22B3002321490B7001240F310C7004310B700C390B7803F07F030B701A4B1B7813F0080F00D08DB9194B18803F
:401D80000721013B1970164B1B7813F0010FFAD110490B7803F0FE030B700021104B19700C4B1B7813F0010F0DD00E4B1D800EB1032200E001220A4B1A70094B1B7813F094
:401DC000010FFAD170BD044B1D8002490B7813430B7070BDA243004080400040824000400140004002400040014B188880B2704704410040034B1A7800F0F80010431870FC
:401E0000704700BF06410040024B187800F00700704700BF0641004070B504460D46FFF7F3FF0646FFF7E0FFA04257D02C4B1B7803F00203DAB296B900B184B938B9294BD0
:401E40001C80294A137803F0BF03137070BD264A137843F040031370224B1C8070BD22B3002322490B70022613310E7004390B7008390B7803F07F030B701B4B1B7813F009
:401E8000080F00D08CB91A4B18800721013B1970164B1B7813F0010FFAD111490B7803F0FD030B700021114B19700D4B1B7813F0020F0DD00E4B1C800DB1032200E0012232
:401EC0000A4B1A70094B1B7813F0010FFAD170BD044B1C8002490B7813430B7070BD00BFA143004004410040064100400140004002400040054A137843F00403137010328F
:401F0000137843F004031370704700BFA8430040054B1A7802F0FD021A701A7800F0020010431870704700BF28580040014B1870704700BF825B0040094B1B7803F00C0376
:401F40005B08084A127812F0040F00D0013303F1924393F82831DBB2034A1370704700BF28580040295800400A46004008B51822064B1A700133002018701A78D2B21A702A
:401F8000FFF7C6FFFFF7D8FF08BD00BF2858004008B5074B1B7823B9FFF7E8FF0122044B1A70FFF7A7FF0020FFF7C0FF08BD00BFB085FF1F10B500F09BF900F0C9F958B9AA
:401FC000012000F0A7F9072802D04FF0FF3400E0072400F0E3F900E00424204610BD00BF30B583B01D4B1B7813F0020F2BD105461A4B1B789B0828D1184B1B7813F0010FE1
:4020000012D0174B1B788DF8043002E00120FFF76DFB124B1B7813F0010FF7D0104B1B788DF80530002400E007247CB99DF80430012B03D19DF805302B8007E09DF80530EA
:402040005B422B8002E0102400E00724072C01D000F0A4F9204603B030BD00BF224700402047004070B50646FFF7A4FF0546072817D112E0072D04D00B4B1B7813F0020FEE
:402080000FD1072D03D13046FFF7AAFF05460A20FFF72CFB0A3CA4B201E04FF4FA54002CE8D1284670BD00BF2247004038B50546022406E02846FFF7D5FF034618B9013CC8
:4020C000E4B2002CF6D1184638BD00BF10B5002407E02046FEF702FF2046FEF739FF0134E4B2022CF5D9FF22014B1A7010BD00BFF584FF1F10B50446FEF7D6FE2046FEF772
:4021000009FF10BD10B50446FFF7E0FF2046FFF7F1FF014B1C7010BDF584FF1F10B5002404E02046FEF752FF0134E4B2012CF8D9FF22014B1A7010BDF684FF1F10B50446B1
:40214000FFF7ECFF2046FEF723FF014B1C7010BDF684FF1F084A137843F0010313701032137843F00103137002F64D32137843F001031370704700BFA3430040014B18707A
:40218000704700BF034F0040014B1880704700BF044F0040014B1880704700BF064F004008B5164A137803F0010313700232137803F0FC031370124B1A7802F0CF021A70A9
:4021C0001A7842F030021A701A7802F0F0021A701A7842F00F021A700A4A137843F00103137045F6BF50FFF7CFFF45F6BF50FFF7D1FF0820FFF7C2FF08BD00BF004F004057
:402200000B4F0040014F004008B5054B1B7823B9FFF7C6FF0122024B1A70FFF79BFF08BDB185FF1F024B1B68C3F88400704700BF08ED00E04001C0B2014B1870704700BF43
:4022400011E400E04FF40032014B1A60704700BF00E100E04FF40032014B1A60704700BF80E100E010B50446FFF7F4FF2046FFF7D9FF0720FFF7DEFFFFF7E4FF10BD00BF9A
:40228000014B1B681864704708ED00E04001C0B2014B1870704700BF00E400E00122014B1A60704700E100E00122014B1A60704780E100E010B50446FFF7F6FF2046FFF7EE
:4022C000DFFF0720FFF7E2FFFFF7E8FF10BD00BF0230800803D000BF01380046FCD17047EFF3108072B6704780F31088704700BF08B5FFF7F5FF064A137843F00803137035
:402300001032137843F008031370FFF7EDFF08BDA04300400C4B1B7813F0020F0FD00B4BB6221A70E1221A700E221A7002331B7813F0020F05D1054B1870072070470420DD
:4023400070470920704700BF224700402047004010B5FFF7C5FF0F4B1B78A3B901220D4B1A700D4B1B6813F0010F0ED00A4A136823F00103136000BF00BF00BF0122054B15
:402380005A60002402E0042400E00024FFF7ACFF204610BDB485FF1F0400084008B5FFF79FFF0A4B00221A705B68012B0AD1084A136843F00103136000BF00BF00BF0022C8
:4023C000024B5A60FFF790FF08BD00BFB485FF1F0400084081F0004102E000BF83F0004330B54FEA41044FEA430594EA050F08BF90EA020F1FBF54EA000C55EA020C7FEA7B
:40240000645C7FEA655C00F0E2804FEA5454D4EB5555B8BF6D420CDD2C4480EA020281EA030382EA000083EA010180EA020281EA0303362D88BF30BD11F0004F4FEA0131AC
:402440004FF4801C4CEA113102D0404261EB410113F0004F4FEA03334CEA133302D0524263EB430394EA050F00F0A780A4F10104D5F1200E0DDB02FA0EFC22FA05F280181C
:4024800041F1000103FA0EF2801843FA05F359410EE0A5F120050EF1200E012A03FA0EFC28BF4CF0020C43FA05F3C01851EBE37101F0004507D54FF0000EDCF1000C7EEB0E
:4024C00000006EEB0101B1F5801F1BD3B1F5001F0CD349085FEA30004FEA3C0C04F101044FEA445212F5800F80F09A80BCF1004F08BF5FEA500C50F1000041EB045141EA21
:40250000050130BD5FEA4C0C404141EB010111F4801FA4F10104E9D191F0000F04BF01460020B1FA81F308BF2033A3F10B03B3F120020CDA0C3208DD02F1140CC2F10C0228
:4025400001FA0CF021FA02F10CE002F11402D8BFC2F1200C01FA02F120FA0CFCDCBF41EA0C019040E41AA2BF01EB0451294330BD6FEA04041F3C1CDA0C340EDC04F1140456
:40258000C4F1200220FA04F001FA02F340EA030021FA04F345EA030130BDC4F10C04C4F1200220FA02F001FA04F340EA0300294630BD21FA04F0294630BD94F0000F83F44F
:4025C000801306BF81F480110134013D4EE77FEA645C18BF7FEA655C29D094EA050F08BF90EA020F05D054EA000C04BF1946104630BD91EA030F1EBF0021002030BD5FEA69
:40260000545C05D14000494128BF41F0004130BD14F580043CBF01F5801130BD01F0004545F0FE4141F470014FF0000030BD7FEA645C1ABF194610467FEA655C1CBF0B467F
:40264000024650EA013406BF52EA033591EA030F41F4002130BD00BF90F0000F04BF0021704730B54FF4806404F132044FF000054FF0000150E700BF90F0000F04BF00218D
:40268000704730B54FF4806404F1320410F0004548BF40424FF000013EE700BF42004FEAE2014FEA31014FEA02701FBF12F07F4393F07F4F81F06051704792F0000F14BF96
:4026C00093F07F4F704730B54FF4607401F0004521F0004120E700BF50EA010208BF704730B54FF000050AE050EA010208BF704730B511F0004502D5404261EB41014FF4AA
:40270000806404F132045FEA915C3FF4DCAE4FF003025FEADC0C18BF03325FEADC0C18BF033202EBDC02C2F1200300FA03FC20FA02F001FA03FE40EA0E0021FA02F1144499
:40274000C1E600BF70B54FF0FF0C4CF4E06C1CEA11541DBF1CEA135594EA0C0F95EA0C0F00F0DEF82C4481EA030621EA4C5123EA4C5350EA013518BF52EA033541F4801191
:4027800043F4801338D0A0FB02CE4FF00005E1FB02E506F00042E0FB03E54FF00006E1FB03569CF0000F18BF4EF0010EA4F1FF04B6F5007F64F5407404D25FEA4E0E6D41A9
:4027C00046EB060642EAC62141EA55514FEAC52040EA5E504FEACE2EB4F1FD0C88BFBCF5E06F1ED8BEF1004F08BF5FEA500E50F1000041EB045170BD06F0004646EA0101D9
:4028000040EA020081EA0301B4EB5C04C2BFD4EB0C0541EA045170BD41F480114FF0000E013C00F3AB8014F1360FDEBF002001F0004170BDC4F10004203C35DA0C341BDCD1
:4028400004F11404C4F1200500FA05F320FA04F001FA05F240EA020001F0004221F0004110EBD37021FA04F642EB06015EEA430E08BF20EAD37070BDC4F10C04C4F12005CE
:4028800000FA04F320FA05F001FA04F240EA020001F0004110EBD37041F100015EEA430E08BF20EAD37070BDC4F1200500FA05F24EEA020E20FA04F301FA05F243EA020336
:4028C00021FA04F001F0004121FA04F220EA020000EBD3705EEA430E08BF20EAD37070BD94F0000F0FD101F00046400041EB010111F4801F08BF013CF7D041EA060195F034
:40290000000F18BF704703F00046520043EB030313F4801F08BF013DF7D043EA0603704794EA0C0F0CEA135518BF95EA0C0F0CD050EA410618BF52EA4306D1D181EA0301AA
:4029400001F000414FF0000070BD50EA410606BF1046194652EA430619D094EA0C0F02D150EA013613D195EA0C0F05D152EA03361CBF104619460AD181EA030101F000419E
:4029800041F0FE4141F470014FF0000070BD41F0FE4141F4780170BD70B54FF0FF0C4CF4E06C1CEA11541DBF1CEA135594EA0C0F95EA0C0F00F0A7F8A4EB050481EA030EC4
:4029C00052EA03354FEA013100F088804FEA03334FF0805545EA131343EA12634FEA022245EA111545EA10654FEA00260EF000419D4208BF964244F1FD0404F5407402D25D
:402A00005B084FEA3202B61A65EB03055B084FEA32024FF480104FF4002CB6EB020E75EB030E22BFB61A754640EA0C005B084FEA3202B6EB020E75EB030E22BFB61A75466A
:402A400040EA5C005B084FEA3202B6EB020E75EB030E22BFB61A754640EA9C005B084FEA3202B6EB020E75EB030E22BFB61A754640EADC0055EA060E18D04FEA051545EA8B
:402A800016754FEA06164FEAC30343EA52734FEAC2025FEA1C1CC0D111F4801F0BD141EA00014FF000004FF0004CB6E711F4801F04BF01430020B4F1FD0C88BFBCF5E06F63
:402AC0003FF6AFAEB5EB030C04BFB6EB020C5FEA500C50F1000041EB045170BD0EF0004E4EEA113114EB5C04C2BFD4EB0C0541EA045170BD41F480114FF0000E013C90E6A6
:402B000045EA060E8DE60CEA135594EA0C0F08BF95EA0C0F3FF43BAF94EA0C0F0AD150EA01347FF434AF95EA0C0F7FF425AF104619462CE795EA0C0F06D152EA03353FF470
:402B4000FDAE1046194622E750EA410618BF52EA43067FF4C5AE50EA41047FF40DAF52EA43057FF4EBAE12E74FEA4102B2F1E04324BFB3F5001CDCF1FE5C0DD901F0004CBF
:402B80004FEAC0024CEA5070B2F1004F40EB830008BF20F00100704711F0804F21D113F13872BCBF01F00040704741F480114FEA5252C2F11802C2F1200C10FA0CF320FAB0
:402BC00002F018BF40F001004FEAC1234FEAD32303FA0CFC40EA0C0023FA02F34FEA4303CCE77FEA625307D150EA01331EBF4FF0FE4040F44000704701F0004040F0FE4088
:402C000040F40000704700BF80F0004002E000BF81F0004142001FBF5FEA410392EA030F7FEA226C7FEA236C6AD04FEA1262D2EB1363C1BFD218414048404140B8BF5B429B
:402C4000192B88BF704710F0004F40F4000020F07F4018BF404211F0004F41F4000121F07F4118BF494292EA030F3FD0A2F1010241FA03FC10EB0C00C3F1200301FA03F174
:402C800000F0004302D5494260EB4000B0F5000F13D3B0F1807F06D340084FEA310102F10102FE2A51D2B1F1004F40EBC25008BF20F0010040EA03007047490040EB00008F
:402CC00010F4000FA2F10102EDD1B0FA80FCACF1080CB2EB0C0200FA0CF0AABF00EBC25052421843BCBFD0401843704792F0000F81F4000106BF80F400000132013BB5E7B8
:402D00004FEA41037FEA226C18BF7FEA236C21D092EA030F04D092F0000F08BF0846704790EA010F1CBF0020704712F07F4F04D1400028BF40F00040704712F100723CBF01
:402D400000F50000704700F0004343F0FE4040F4000070477FEA226216BF08467FEA23630146420206BF5FEA412390EA010F40F4800070474FF0000304E000BF10F00043FF
:402D800048BF40425FEA000C08BF704743F0964301464FF000001CE050EA010208BF70474FF000030AE000BF50EA010208BF704711F0004302D5404261EB41015FEA010C47
:402DC00002BF84460146002043F0B64308BFA3F18053A3F50003BCFA8CF2083AA3EBC25310DB01FA02FC634400FA02FCC2F12002BCF1004F20FA02F243EB020008BF20F06A
:402E00000100704702F1200201FA02FCC2F1200250EA4C0021FA02F243EB020008BF20EADC7070474FF0FF0C1CEAD0521EBF1CEAD15392EA0C0F93EA0C0F6FD01A4480EAAF
:402E4000010C400218BF5FEA41211ED04FF0006343EA501043EA5111A0FB01310CF00040B1F5000F3EBF490041EAD3715B0040EA010062F17F02FD2A1DD8B3F1004F40EBCE
:402E8000C25008BF20F00100704790F0000F0CF0004C08BF49024CEA502040EA51207F3AC2BFD2F1FF0340EAC250704740F400004FF00003013A5DDC12F1190FDCBF00F0B5
:402EC00000407047C2F10002410021FA02F1C2F1200200FA02FC5FEA310040F1000053EA4C0308BF20EADC70704792F0000F00F0004C02BF400010F4000F013AF9D040EAF0
:402F00000C0093F0000F01F0004C02BF490011F4000F013BF9D041EA0C018FE70CEAD15392EA0C0F18BF93EA0C0F0AD030F0004C18BF31F0004CD8D180EA010000F00040F7
:402F4000704790F0000F17BF90F0004F084691F0000F91F0004F14D092EA0C0F01D142020FD193EA0C0F03D14B0218BF084608D180EA010000F0004040F0FE4040F4000053
:402F8000704740F0FE4040F4400070474FF0FF0C1CEAD0521EBF1CEAD15392EA0C0F93EA0C0F69D0A2EB030280EA010C49024FEA402037D04FF0805343EA111143EA10133B
:402FC0000CF000408B4238BF5B0042F17D024FF4000C8B4224BF5B1A40EA0C00B3EB510F24BFA3EB510340EA5C00B3EB910F24BFA3EB910340EA9C00B3EBD10F24BFA3EBD9
:40300000D10340EADC001B0118BF5FEA1C1CE0D1FD2A3FF650AF8B4240EBC25008BF20F0010070470CF0004C4CEA50207F32C2BFD2F1FF0340EAC250704740F400004FF052
:403040000003013A37E792F0000F00F0004C02BF400010F4000F013AF9D040EA0C0093F0000F01F0004C02BF490011F4000F013BF9D041EA0C0195E70CEAD15392EA0C0F82
:4030800008D142027FF47DAF93EA0C0F7FF470AF084676E793EA0C0F04D14B023FF44CAF08466EE730F0004C18BF31F0004CCAD130F000427FF45CAF31F000437FF43CAF07
:4030C0005FE700BF4FF0FF3C06E000BF4FF0010C02E000BF4FF0010C4DF804CD4FEA40024FEA41037FEA226C18BF7FEA236C11D001B052EA530C18BF90EA010F58BFB2EB5D
:40310000030088BFC81738BF6FEAE17018BF40F0010070477FEA226C02D15FEA402C05D17FEA236CE4D15FEA412CE1D05DF8040B704700BF844608466146FFE70FB5FFF764
:40314000C9FF002848BF10F1000F0FBD4DF808EDFFF7F4FF0CBF012000205DF808FB00BF4DF808EDFFF7EAFF34BF012000205DF808FB00BF4DF808EDFFF7E0FF94BF01204F
:4031800000205DF808FB00BF4DF808EDFFF7D2FF94BF012000205DF808FB00BF4DF808EDFFF7C8FF34BF012000205DF808FB00BF4FEA4002B2F1FE4F0FD34FF09E03B3EB1F
:4031C00012620DD94FEA002343F0004310F0004F23FA02F018BF404270474FF00000704712F1610F01D1420205D110F0004008BF6FF0004070474FF000007047014B1868C1
:40320000704700BF5885FF1F0E4B70B51E460E4C0025E41AA410A54204D056F8253098470135F8E700F078FF084B094C1E46E41AA4100025A54204D056F8253098470135FB
:40324000F8E770BD2441000024410000244100002C41000010B5431E0A44914204D011F8014B03F8014FF8E710BD03460244934202D003F8011BFAE7704700000EB400B5E3
:403280004FF402719CB0ADF814106FF00041049107914FF6FF711DAB02900690084853F8042BADF81610006802A9019300F06CF8029B00221A701CB05DF804EB03B070477E
:4032C0005885FF1F034613F8012B002AFBD1181A013870472DE9F0478E6882469E420C46914698463ED88A8912F4906F3AD02568096902236F1A656905EB450595FBF3F5E4
:403300007B1C43449D4238BF1D4653050FD5294600F040FB064698B13A462169FFF79AFFA38923F4906343F08003A38113E02A4600F08EFB064670B92169504600F0DEFAE9
:403340000C23CAF80030A3894FF0FF3043F04003A381BDE8F08726613E44266046466561ED1BA560464528BF464649463246206800F0A8FAA36800209B1BA36023681E44FE
:403380002660BDE8F08700002DE9F04F9DB003938B8980461C060D4616460DD50B695BB9402100F0F7FA2860286118B90C23C8F80030CDE040236B610023099320238DF878
:4033C0002930DFF89CB130238DF82A3037463C4614F8013B1BB9B7EB060910D003E0252BF9D02746F3E74B46324629464046FFF771FF013000F0A780099B4B4409933B7801
:40340000002B00F0A08000234FF0FF3204930793059206938DF853301A930126052221784E4800F041FA671C049B38B14B4A3C46801A06FA00F018430490EFE7D90644BFAD
:4034400020228DF853201A0744BF2B228DF8532022782A2A03D0079A00210A200BE0039A111D12680391002A10DA524243F00200079204900BE027463B780134303B092B4F
:4034800003D800FB02320121F5E701B107923B782E2B1ED17B782A2B0AD1039B02371A1D1B680392002BB8BF4FF0FF33059310E0002319460593781C0A2407463A780130CE
:4034C000303A092A03D804FB01210123F5E703B1059103223978224800F0E6F940B14023CBEB000003FA00F0049B013718430490397806221B487E1C8DF8281000F0D4F9CD
:4035000088B1194B33B9039B073323F007030833039314E003AB00932A46144B04A94046AFF3008007E003AB00932A460F4B04A9404600F093F8B0F1FF3F824603D0099B25
:403540005344099342E7AB895B0601D4099801E04FF0FF301DB0BDE8F08F00BFE2400000E8400000EC40000000000000D53200002DE9F04791461F460A698B680646934258
:40358000B8BF1346C9F8003091F843200C46DDF8208012B10133C9F800302368990642BFD9F800300233C9F80030256815F0060510D104F1190A07E001235246394630462F
:4035C000C04701301AD00135E368D9F800209B1A9D42F1DB94F843302268003318BF012392060FD5E118302081F843005A1C94F845102244023382F8431003E04FF0FF308F
:40360000BDE8F08704F1430239463046C0470130F4D02268D9F80050E36802F00602042A08BF5D1B2269A3680CBF25EAE57500259342C4BF9B1AED184FF000091A344D45BD
:4036400009D00123224639463046C0470130D5D009F10109F3E70020BDE8F0872DE9F04317460A7E85B06E2A984606460C460C9B01F1430E00F0AE8011D8632A22D009D831
:40368000002A00F0BB80582A40F0CA8081F84520834955E0642A1ED0692A1CD0C0E0732A00F0B08009D86F2A2ED0702A40F0B8800A6842F020020A603EE0752A24D0782A85
:4036C0003AD0ADE01A6801F14205111D1960136884F84230A8E021681A6811F0800F02D0111D196008E011F0400F02F10401196002D0B2F9003000E01368002B3CDA2D228B
:403700005B4284F8432037E021681A6811F0800F02D0111D196007E011F0400F02F10401196001D0138800E01368227E5C496F2A14BF0A2208221BE078225A4984F8452053
:403740002268186812F0800F00F104051D6003D1550601D5038800E00368D00744BF42F0200222601BB9226822F0200222601022002084F8430001E049490A226568002DEE
:40378000A56008DB206820F0040020602BB9002D7DD175460CE0002B79D07546B3FBF2F002FB1033CB5C05F8013D03460028F5D1082A0BD12368DA0708D5236962689A42DE
:4037C000DEBF302305F8013C05F1FF35C5EB0E0323612EE008681A6810F0800F496903D0101D1860136808E010F0400F02F104001860136801D0198000E019600023236171
:40380000754616E01A68111D1960156800216268284600F049F808B1401B6060636804E004F1420584F8422001232361002384F84330CDF800803B4603AA21463046FFF70A
:4038400097FE013002D14FF0FF3026E023692A4639463046C0470130F5D023689B0710D5002504F1190907E001234A4639463046C0470130E7D00135E368039A9B1A9D42CE
:40388000F2DBE068039B9842B8BF184605E00B7804F1420584F842308AE705B0BDE8F083F34000000441000010B5C9B202449042034605D01C7801308C42F8D1184610BD61
:4038C000002010BD884210B501EB020301D8421E0BE09842FBD28118D21AD34204D013F8014D01F8014DF8E710BD994204D011F8014B02F8014FF8E710BD000038B50546A4
:40390000002944D051F8043C0C1F002BB8BFE41800F0D4F81E4A1368114613B96360146030E0A3420DD92268A018834201BF18685B681218226063600C6023E0A24203D87D
:4039400013465A68002AF9D118681918A1420BD12168014458188242196013D110685268014419605A600DE002D90C232B6009E021686018824201BF1068526809182160FB
:4039800062605C602846BDE8384000F098B838BDC085FF1F70B5CD1C25F0030508350C2D38BF0C25002D064601DBA94202D90C23336046E000F082F8234B1C681A46214677
:4039C000A1B10B685B1B0ED40B2B03D90B60CC18CD501EE08C420BBF63684B681360636018BF0C4615E00C464968E9E7174C23681BB9304600F052F820602946304600F02A
:403A00004DF8431C18D0C41C24F00304A0420DD12560304600F053F804F10B00231D20F00700C31A0ED05A42E25070BD211A304600F034F80130EBD10C233360304600F01A
:403A40003EF8002070BD00BFC085FF1FBC85FF1FF8B5074615460E4621B91146BDE8F840FFF798BF1AB9FFF749FF2846F8BD00F027F885420ED929463846FFF78BFF044696
:403A800050B131462A46FFF7E5FB31463846FFF735FF01E03046F8BD2046F8BD38B5064C0023054608462360FDF730FB431C02D1236803B12B6038BDF085FF1F7047704773
:403AC00051F8040C0028BEBF091851F8043CC018043870470000000053317C3934437C574950000053317C3934437C256400000053327C3535437C574950000053317C3533
:403B000035437C256400000053337C3732437C574950000053317C3732437C2564000000523A000025642E2530327500543A00000021007F2200070000AED580A83FD300EA
:403B4000408D142000A1C8DA1281CFD9F1DB40A4A6AF000000000000003E5B4F5B3E3E6B4F6B3E1C3E7C3E1C183C7E3C181C577D571C1C5E7F5E1C00183C1800FFE7C3E777
:403B8000FF0018241800FFE7DBE7FF30483A060E2629792926407F050507407F05253F5A3CE73C5A7F3E1C1C08081C1C3E7F14227F22145F5F005F5F06097F017F006689C5
:403BC000956A606060606094A2FFA29408047E040810207E201008082A1C08081C2A08081E101010100C1E0C1E0C30383E3830060E3E0E06000000000000005F00000007B3
:403C0000000700147F147F14242A7F2A12231308646236495620500008070300001C2241000041221C002A1C7F1C2A08083E08080080703000080808080800006060002050
:403C4000100804023E5149453E00427F400072494949462141494D331814127F1027454545393C4A49493141211109073649494936464949291E0000140000004034000056
:403C800000081422411414141414004122140802015909063E415D594E7C1211127C7F494949363E414141227F4141413E7F494949417F090909013E414151737F08080803
:403CC0007F00417F41002040413F017F081422417F404040407F021C027F7F0408107F3E4141413E7F090909063E4151215E7F09192946264949493203017F01033F4040F7
:403D0000403F1F2040201F3F4038403F631408146303047804036159494D43007F4141410204081020004141417F04020102044040404040000307080020545478407F28B9
:403D40004444383844444428384444287F385454541800087E090218A4A49C787F0804047800447D40002040403D007F1028440000417F40007C047804787C08040478380F
:403D800044444438FC1824241818242418FC7C08040408485454542404043F44243C4040207C1C2040201C3C4030403C44281028444C9090907C4464544C440008364100C9
:403DC0000000770000004136080002010204023C2623263C1EA1A161123A4040207A385454555921555579412254547842215554784020545579400C1E52721239555555E1
:403E000059395454545939555454580000457C410002457D420001457C407D1211127DF0282528F07C545545002054547C547C0A097F4932494949323A4444443A324A48E3
:403E400048303A4141217A3A42402078009DA0A07D3D4242423D3D4040403D3C24FF2424487E4943662B2FFC2F2BFF0929F620C0887E090320545479410000447D41304827
:403E8000484A32384040227A007A0A0A727D0D19317D2629292F28262929292630484D4020380808080808080808382F10C8ACBA2F102834FA00007B000008142A14222213
:403EC000142A1408AA005500AAAA55AA55AA000000FF00101010FF00141414FF001010FF00FF1010F010F0141414FC001414F700FF0000FF00FF1414F404FC141417101FA2
:403F000010101F101F1414141F00101010F0000000001F101010101F10101010F010000000FF101010101010101010FF10000000FF140000FF00FF00001F10170000FC04E5
:403F4000F414141710171414F404F40000FF00F714141414141414F700F7141414171410101F101F141414F4141010F010F000001F101F0000001F14000000FC140000F0B9
:403F800010F01010FF10FF141414FF141010101F00000000F010FFFFFFFFFFF0F0F0F0F0FFFFFF0000000000FFFF0F0F0F0F0F3844443844FC4A4A4A347E02020606027EEC
:403FC000027E0263554941633844443C04407E201E2006027E020299A5E7A5991C2A492A1C4C7201724C304A4D4D303048784830BC625A463D3E494949007E0101017E2A56
:404000002A2A2A2A44445F444440514A444040444A51400000FF0103E080FF000008086B6B083612362436060F090F06000018180000001010003040FF0101001F01011E50
:4040400000191D1712003C3C3C3C0000000000000D510040005B00400D510040005B0040035B00402443004040401010040000000D510040045B00400D510040045B00401C
:40408000035B00402443004008802020400000000C510040935A0040935A00402443004040108000C84900401900004F00400C00305100404000C05100401000F05100405D
:4040C000100000000140001000140140000800400140000A004C014000020050014020004300232D302B2000686C4C00656667454647003031323334353637383941424332
:40410000444546003031323334353637383961626364656600000000F8B500BFF8BC08BC9E4670474D00000089110000F8B500BFF8BC08BC9E4670472900000050410000AF
:40414000C880FF1F980400009800000000000000000000007D0000000000A04040000000000000000000000000000000000000000000000000000000000000000000000008
:4041800000000000000000000000000000000000000000000000000000000000000000000000000000000000000000000000000000000000000000000000000000000000FF
:4041C00000000000000000000000000000000000000000000000000000000000000000000000000000000000000000000000000000000000000000000000000000000000BF
:40420000000000000000000000000000000000000000000000000000000000000000000000000000000000000000000000000000000000000000000000000000000000007E
:40424000000000000000000000000000000000000000000000000000000000000000000000000000000000000000000000000000000000000000000000000000000000003E
:4042800000000000000000000000000000000000000000000000000000000000000000000000000000000000000000000000000000000000000000000000000000000000FE
:4042C00000000000000000000000000000000000000000000000000000000000000000000000000000000000000000000000000000000000000000000000000000000000BE
:40430000000000000000000000000000000000000000000000000000000000000000000000000000000000000000000000000000000000000000000000000000000000007D
:40434000000000000000000000000000000000000000000000000000000000000000000000000000000000000000000000000000000000000000000000000000000000003D
:4043800000000000000000000000000000000000000000000000000000000000000000000000000000000000000000000000000000000000000000000000000000000000FD
:4043C00000000000000000000000000000000000000000000000000000000000000000000000000000000000000000000000000000000000000000000000000000000000BD
:40440000000000000000000000000000000000000000000000000000000000000000000000000000000000000000000000000000000000000000000000000000000000007C
:40444000000000000000000000000000000000000000000000000000000000000000000000000000000000000000000000000000000000000000000000000000000000003C
:4044800000000000000000000000000000000000000000000000000000000000000000000000000000000000000000000000000000000000000000000000000000000000FC
:4044C00000000000000000000000000000000000000000000000000000000000000000000000000000000000000000000000000000000000000000000000000000000000BC
:40450000000000000000000000000000000000000000000000000000000000000000000000000000000000000000000000000000000000000000000000000000000000007B
:404540000000000000000000000000000000000000000000000000000000000000000000F885FF1F7F800000000400000000E02EC05D00001800000000366E0101FFFF00B6
:404580000000000000000000000000000000000000000000000000000000000000000000E040000000000000000000000000000000000000000000000000000000000000DB
:4045C0000000000000000000000000000000000000000000000000000000000000000000F884FF1F0000000000000000000000000000000000000000000000000000000021
:40460000000000000000000000000000000000000000000000000000000000000000000000000000000000000000000000000000000000000000000000000000000000007A
:40464000000000000000000000000000000000000000000000000000000000000000000000000000000000000000000000000000000000000000000000000000000000003A
:4046800000000000000000000000000000000000000000000000000000000000000000000000000000000000000000000000000000000000000000000000000000000000FA
:4046C00000000000000000000000000000000000000000000000000000000000000000000000000000000000000000000000000000000000000000000000000000000000BA
:020000040003F7
:0200000480007A
:40000000024F00400252004001030140030501400107014002090140370A0140210B0140010D0140021501400117014002190140021B0140024001400B4101400C42014030
:400040000243014002440140044501400D4601400747014007480140034901400B4C0140034D0140045001400251014001800A4B00020103E201E649E880EC10EE109D80EA
:40008000EE1038803E40560858045B045D905F0183028701900292019401960A98019A069B019C019E02A401A612B003B210B302B408B604B701BA02C020C106C501C62069
:4000C000C809C9FFCAFFCBFFCDA0CF04D018D280D80BD904DA04DB04DC19DD11DF01E040E2C0E440E540E6C0E8C0EAC0ECC0EEC00E6A15041B801E6A272237203C023F08E4
:4001000047204F2857105980628074017E80830287808E409104B104C2F0C420CC20CEC0D020D220D608D808DE80E408E640E880EC10E201EA01EC10E00481809D80EA016D
:40014000EC103120CC1000010502500451025F808380A520C030D4A0D620E2803E106140800485408D209408A522B102B401CE20D640E6909610B5027C08DE0101208301B5
:400180009C08C00245088408970198209C08A110B020B120B510D001E801EA04EC08970198209F04A110A508B704EE0825102B4083409610C820CA40E020AA10B510EA8073
:4001C0001321170478207D20970198209F04A110A508C40EDE03AB20B508EC08000201010C020D01000303C00300101704000700F8000000000303000000000004000400DA
:400200000000000001001401070018010000000000000000000000000000000000000000000000000000000000000000000000000000000000000000000000000000000088
:40024000000000000000000000000000000000000000000000000000000000000000000000000000000000000000000000000000000000000000000000000000000000007E
:40028000000000000000000000000000000000000000000000000000000000000000000000000000000000000000000000000000000000000000000000000000000000003E
:4002C00000000000000000000000000000000000000000000000000000000000000000000000000000000000000000000000000000000000000000000000000000000000FE
:4003000000000000000000000000000000000000000000000000000000000000000000000000000000000000000000000000000000000000000000000000000000000000BD
:0200000490006A
:0400000000004005B7
:0200000490105A
:04000000BC90ACAF55
:0200000490303A
:02000000AE78D8
:0200000490402A
:4000000000000000000000000000000000000000000000000000000000000000000000000000000000000000000000000000000000000000000000000000000000000000C0
:400040000000000000000000000000000000000000000000000000000000000000000000000000000000000000000000000000000000000000000000000000000000000080
:400080000000000000000000000000000000000000000000000000000000000000000000000000000000000000000000000000000000000000000000000000000000000040
:4000C0000000000000000000000000000000000000000000000000000000000000000000000000000000000000000000000000000000000000000000000000000000000000
:0200000490501A
:0C00000000012E16106900012E2EBEE13A
:00000001FF