:400000000080002011000000411200004112000008B5044B1A6803F53F5302331A6001F029F900BFFA46004010B5054C237833B9044B13B10448AFF300800123237010BDAE
:400040007885FF1F000000002C510000084B10B51BB108490848AFF300800848036803B910BD074B002BFBD0BDE81040184700BF000000007C85FF1F2C510000C880FF1FA0
:4000800000000000034B1B78034A136801331360704700BF034F0040EC85FF1F024A137801331370704700BFCC80FF1F10B5022002F002F900240FE001F050FE002001F0B4
:4000C0005DFE01F073FE01F0A7FE1A4A13681844106001F04BFE0134032CEDDD154A1368002B00DA03339B101360002002F0E4F8002002F0FDF8104B187901F0F1FF002481
:400100000FE001F02BFE002001F038FE01F04EFE01F082FE074A53681844506001F026FE0134032CEDDD002001F0DAFF0022014B5A6010BD9485FF1FCC80FF1F00000000E6
:4001400070B5012002F0D4F8012002F0B5F82C4E73682C4C6068181AC0B201F0C1FF01F0FDFD002001F00AFE01F000FE01F01EFE01F052FE2368C51A002001F0B1FF2846F7
:4001800004F028F905467268C2EB0222D3001E4880FB03201844DB17C3EBE01004F01AF90646606804F016F90146304604F05CF80146284604F016FA144B186003F09AFD34
:4001C0000BA3D3E9002303F013FF0022104B03F031FC09A3D3E9002303F00AFF00220D4B03F02AFC03F0ECFF70BD00BFAFF300805C8FC2F5283C71404277499C1551633F6D
:40020000CC80FF1F9485FF1F81808080F085FF1F0000F03F0080374070B50C460146204604F022F80546002104F0E4FA70B1214B9E682149304604F0BFFA38B14FF07E51DC
:40024000304604F013F81B4B986012E00021284604F0B2FA68B1174B9E680021304604F0C9FA30B14FF07E51304603F0FDFF114B98604FF07851284604F000F90D4DA96845
:4002800003F0F4FFA8600D4904F096FA08B10B4AAA600021204604F085FA10B10022054B9A60044B986804F0AFFA80B201F03CFB70BD00BF9485FF1F00FF7F470000964330
:4002C00070B5CCB04FF4FA6001F096FA01F074F801F050FB01F02EFD01F034FF01F0D0FF01F0F6FF62B68A4802F096F8894802F0BBF802F063F83C2000F0F4FB0121002016
:4003000002F0BCF902F0CEFAFFF7D0FE824801F0A7FF0DF1020001F0A3FFBDF802307F4A92899B1A9BB20A339BB2142B05D9FFF7BDFEBDF80220794B9A81FFF701FF044689
:40034000764B1B69062B00F23C81DFE813F00700200047006E009500BC0015010021FFF75BFF6F4B01936F4B1B68ADF868301B0C8DF86A306C4B93F90030002B40F3218159
:400380000122664B1A610022674B1A7019E16749FFF742FF664A01AB07CA03C323F8022B120C1A70634B1B68ADF868301B0C8DF86A306149204604F01DFA002800F0018163
:4003C0005E49204604F0F8F9002800F0FA800222524B1A6100225A4B1A60F2E05349FFF71BFF544B1B68ADF868301B0C8DF86A30534E3168534D85FB0132C917C1EBA2120C
:40040000C2F10F02504901A804F064FA336885FB0325DB17C3EBA513C3F10F03002B00F3D08003223D4B1A61CBE04849FFF7F4FE474A01AB07CA03C323F8022B120C1A7085
:40044000444B1B68ADF868301B0C8DF86A304249204604F0CFF9002800F0B3803F49204604F0AAF9002800F0AC8004222B4B1A610022334B1A60A4E03449FFF7CDFE354BB3
:400480001B68ADF868301B0C8DF86A302C4E31682C4D85FB0132C917C1EBA212C2F10F022F4901A804F016FA336885FB0325DB17C3EBA513C3F10F03002B00F38280052226
:4004C000164B1A617DE02749FFF7A6FE264B1B68ADF868301B0C8DF86A30244A01AB07CA03C323F8022B120C1A702149204604F081F9002865D01F49204604F05DF90028C6
:400500005FD00622054B1A6100220D4B1A6058E0850000009D000000A085FF1F9485FF1F6F66660030510000CC80FF1F0000BC4234510000405100000000B8420000C0429B
:40054000EC85FF1FD34D62104451000000005C42505100005C510000000054420000644260510000000090426C5100007051000000008C42000094424E49FFF74DFE4E4B87
:400580001B68ADF868301B0C8DF86A304B4E31684B4D85FB0132C917C1EBA212C2F11E02484901A804F096F9336885FB0325DB17C3EBA513C3F11E03002B02DC0022424BC0
:4005C0001A6100F045FA022000F0B2FA012000F0B7FA0021084600F0A5FA3C4800F030FC3B4B1D68284604F00FF9064603F0F2FE0146284603F038FE364903F03FFF04F00D
:4006000003F9354D03463246294633A804F062F933A800F023FC314800F012FC204604F0F3F8064603F0D6FE0146204603F01CFE284903F023FF04F0E7F8034632462946E6
:4006400033A804F047F933A800F008FC01A800F0F7FB00F00BFA02F0C1F940B133AB1AAA1F49104604F036F91AA802F067F9642001F0C2F8144B1B69002B3FF44AAEFFF78A
:400680005FFD114C616903F0EFFD06460B4D2868A369C01A03F09EFE124903F0A3FF0146304603F09FFFE061FFF74AFD60612B68A3612EE6000090426C510000EC85FF1FE9
:4006C000D34D62107C5100009485FF1F88510000F085FF1F0000C8428C510000945100009851000000007A4483B27F2B3CD800293ADB3F2938DC012A03D09AB1022A23D070
:4007000070471A4A0B46002900DACB1DDB1000EBC31001F00701012303FA01F1135C194311547047114A0B46002900DACB1DDB1000EBC31001F00701012303FA01F1135C0B
:4007400023EA010111547047084A0B46002900DACB1DDB1000EBC31001F00701012303FA01F1135C59401154704700BFD580FF1FF0B5BDF81440904267D10D46002900DAA7
:40078000CD1DED1000EBC510444F07441846002B00DAD81DC01002EBC012404810443A4650E0BA4218D13E4D0D4003D5013D65F007050135EEB2F5186D1AEDB2062D00D9F8
:4007C0000725AD1B01354FF0010E0EFA05F5013D05FA06F6F6B20EE082420CD1304D1D4003D5013D65F0070501352DB2012606FA05F56E1EF6B2BA4201D0824212D1012CB3
:4008000003D034B1022C09D01BE015783543157017E0157825EA0605157012E01578754015700EE0012C03D02CB1022C06D008E0FF25157005E00025157002E01578ED430A
:40084000157080328242ACD9F0BD0B46002900DACB1DDB1000EBC313104D2B44121A1A4401F00701012000FA01F1CDB212E0012C03D034B1022C09D00BE01878284318703C
:4008800007E0187820EA0100187002E018786840187001339342EAD9F0BD00BFD580FF1F07000080B1F90020154B1B78022B0CD0032B19D0012B21D1B0F900300B80114B9F
:4008C0001B889A1A013A02807047B0F900200D4B1B889B1A013B0380B1F900200A4B1B889B1A013B0B80704710B4B0F90040064B1B881B1B013B0B80028010BC704700BF9E
:40090000F685FF1FF485FF1FF885FF1F10B584B0ADF80E00ADF80C10ADF80A20ADF80830904203D009B21BB2994271D1394B1B78012B01D0032B1AD1002869DB364BB3F9C3
:400940000030984264DA002A62DB9A4260DABDF90C30002B5CDB314AB2F90020934257DABDF90830002B53DB9A421ADC50E0BDF90C30002B4CDB2849B1F900108B4247DA6C
:40098000BDF90830002B43DB994241DD00283FDB224BB3F9003098423ADA002A38DB9A4236DA03A90DF10E00FFF77CFF02A90DF10A00FFF777FFBDF90E30BDF90A20934274
:4009C00005D1BDF90800BDF90C10884207DBBDF90C00BDF9081088420DD193420BDDADF80E20ADF80A30BDF90C30BDF80820ADF80C20ADF80830BDF90830BDF90A20BDF93D
:400A00000C10BDF90E00BDF818400094FFF7B0FE04B010BDF685FF1FF885FF1FF485FF1FF8B507460E460021084B187800F040FE0024FF2504E0385D00F096FE0546013400
:400A4000B442F8DB00F074FE2846F8BDB485FF1F10B5054C4FF480620021601C03F031FF4023237010BD00BFD480FF1F00B583B00A4B186800909A889B79ADF804208DF811
:400A8000063007216846FFF7CBFF40F201410448FFF7C6FF03B05DF804FB00BFA0510000D480FF1F0A4B18800A4B19800A4B58809980002209490A70DA801A8101229A7293
:400AC0004FF6FF719981D981054B1A70704700BFF485FF1FF885FF1FB485FF1FF685FF1FFA85FF1F30B589B00C4B187040218020FFF7D8FF01AC0A4D55F8080F6968AA68A8
:400B0000EB680FC42869696903C42B8B23801A2101A8FFF785FF09B030BD00BFB485FF1FA0510000014BD88019817047B485FF1F08B90120FFE7014B98727047B485FF1F89
:400B4000014B9881D8817047B485FF1F10B582B0ADF80600ADF80410002819DB0D4BB3F90230984214DA0BB2002B11DB0949B1F904108B420CDA144601A90DF10600FFF79F
:400B800091FE2246BDF90410BDF90600FFF7ACFD02B010BDB485FF1F2DE9F04F85B005460E461746BDF838200292B84201D0994207D1029A00923A4631462846FFF7A6FE71
:400BC00052E0C1EB0308B8F1000FB8BFC8F10008C0EB0709B9F1000FB8BFC9F10009C84504DD3A461F4613460D460646BD4205DD32461E4613462A463D461746C5EB070B7B
:400C00001FFA8BFB0FFA8BF4C6EB030ABAF1000FB8BFCAF1000A04EBD47464109E4202DA012303931EE04FF0FF3303931AE0C84505DD029A29463046FFF788FF04E0029A4C
:400C400031462846FFF782FFCAEB0404A3B21CB2002C05DA039A164436B20BEB030424B201352DB2BD42E2DD05B0BDE8F08F00BF2DE9F04383B005460E4617469846BDF805
:400C8000289093420FDC0C461EE006EB0803013BCDF800901BB2224631462046FFF77CFF013424B200E00446EB199C42EDDB0FE0EA19013ACDF80090234612B221462846F9
:400CC000FFF76AFF013424B206EB08039C42EFDB03B0BDE8F08300BF2DE9F04F85B0BDF838B09DF83C60364CB4F90240844263DD334CB4F904408C425EDD06EB46056C006C
:400D00000444012C58D401EBC604012C54D4984603928A46814600274CE0052F08D0039B03EB83033B44274A134493F8245000E0002500243AE015F0010F19D0012E09D1FC
:400D400004EB0A0107EB0900424609B200B2FFF7FDFE28E0B0B232B204FB00A107FB0090CDF80080134609B200B2FFF781FF1AE0D84518D0012E09D104EB0A0107EB09009A
:400D80005A4609B200B2FFF7E1FE0CE0B0B232B204FB00A107FB0090CDF800B0134609B200B2FFF765FF6D08013464B2072CC2DD01377FB2052FB0DD05B0BDE8F08F00BF04
:400DC000B485FF1FA05100000A2808D11A4B997A1A8902EBC1021A810022DA8070470D28FCD030B583B00246134CE389B4F90810B4F90600A57A0195A5890095FFF76CFF8A
:400E0000A27A91B201EB41035800E38803441BB2E3800A48007868B1A2EB82025000B4F902201044834205DD228902EBC10121810022E28003B030BDB485FF1FFA85FF1FC7
:400E400070B5064603F06AFD0546002403E0305DFFF7BAFF0134AC42F9D370BD08B5FFF7EFFF0A20FFF7B0FF08BD00BFFEE700BFF0B40022174611E050F82760F3B226F0C7
:400E8000FF0608E001EB420511F812406D78A5550132013BDBB2002BF4D101371C2FEBD9F0BC7047064B1B78DBB203F00701054A11701B09013213706622034B1A70704715
:400EC000CF0100496E5800407658004008B50A46002103F0F6FC08BD08B503F0E7FC08BD38B500242F4B1C80502202331A70012202331A80182202331A7008222A492B4842
:400F0000FFF7EAFF06222A4B1A705222A3F580731A70284B1B78DBB2274A13704FF4E162264B1A8041F25122023B1A8019250CE0234B1B7803F0010343EA440404F00304FB
:400F40004FF4F07002F0C0FC013D0DB1032CEFD115B90320FFF78AFF1A4A4FF48073138007231370002318490B704820023108701370053213700222144B1A7004220A332C
:400F80001A70134A137843F003031370013A137843F002031370013A137843F08003137038BD00BF804000404802004800410040004300400F010049A14600402242004015
:400FC00025420040044000400640004001400040A2430040022814D810B44000C0B2094B53F820101A18147E0A7822430A700130C0B253F820201844017E13780B431370B5
:4010000010BC7047C0560000022816D810B44000C0B20A4B53F820101A18147E0A7822EA04020A700130C0B253F820201844017E137823EA0103137010BC7047C056000026
:40104000022818D810B44000C0B20B4B03EB8002116A1A1892F838400A7822430A700130C0B203EB8002126A184490F8381013780B43137010BC7047C056000002281AD83E
:4010800010B44000C0B20C4B03EB8002116A1A1892F838400A7822EA04020A700130C0B203EB8002126A184490F83810137823EA0103137010BC7047C0560000012818D8AA
:4010C00010B44000C0B20B4B03EB8002116C1A1892F850400A7822430A700130C0B203EB8002126C184490F8501013780B43137010BC7047C056000001281AD810B44000A1
:40110000C0B20C4B03EB8002116C1A1892F850400A7822EA04020A700130C0B203EB8002126C184490F85010137823EA0103137010BC7047C056000038B572B600240CE0ED
:401140002E4863001A19510001440A46B1F85810506DFFF7BBFE0134E4B2082CF0D928494FF09040FFF784FE0A24264B1C70012203F521731A7004212348FFF7A7FE234A44
:40118000137843F0020313701032137843F0020313701F4D2B7843F040032B70A2F58632513A137843F010031370224619491A48FFF792FE224619491948FFF78DFE08228B
:4011C00018491948FFF788FE224618491848FFF783FE184A137843F008031370164C61232370FFF77DFE81232370FFF75BFE0E2229461248FFF770FE38BD00BFC0560000CC
:4012000074000048835800405076004003500140A04300401C0200480051004028020048F051004034020048125100403C020048205100402243004000480040B043004078
:40124000FEE700BF08B5094B1A681044084BC31A802B02DC054B186005E003F0FBFA0C2303604FF0FF32104608BD00BFD884FF1FF086FF1F08B5104E104D16E029686B68D9
:40128000AC68002204E051F8040B43F8040B0432A242F8D1E868002203E0002143F8041B04328242F9D11035013E002EE6D103F0D7FAFFF705F8FEE7010000001859000084
:4012C00008B5114A114B1A60114A136843F40073136000230AE0032B03D80E4A52F8231000E00D490D4A42F8231001332F2BF2D90B4B1A780B4B1A70084A0B4B1A60FFF7EF
:401300001BFF00F05DFA08BD0004FA050CED00E014ED00E000000000411200000080FF1FBC760040C080FF1F08ED00E010B50222114B1A7081220E3B1A70082202331A7006
:40134000042211331A70002401331C704FF400420A4B1A6007210F2000F082FA08490F2000F06AFA1022074B1A70074B1C70074B1C70074B1C7010BDD649004080E100E095
:40138000E1130000FB85FF1FFC85FF1FFE85FF1FFF85FF1F08B502F09FFA064A137843F0040313701032137843F00403137002F097FA08BDA543004008B5074B1B7823B961
:4013C000FFF7B4FF0122044B1A70FFF7E3FF4FF40042024B1A6008BDC485FF1F00E100E038B5A54B1C78A54B1B7813F0400F00F03A81E4B214F0010F00F01D819F4B1B7891
:40140000453B052B00F21481DFE813F006008200120112010600DF0004F0DF0504F00A04082C42D1954B1B78DBB2452B35D1944B1B7813F0FF0F10D0924B1B681B78DBB29E
:40144000914A137004228C4B1A7001228F4B1A7046228A4B1A702C46EDE08D4B1B7813F0020F0DD08B4A137843F00A0313706022824B1A704FF40042874B1A602C46DAE0A5
:40148000864A137843F0100313701022844B1A700422023B1A702C46CDE00022764B1A704A22764B1A702C46C5E00A2C2BD1794A137843F0A0031370754B1B7813F0020FF6
:4014C00014D06E4B1B7813F0080F01D0092300E00A23704A11780B4313706022674B1A704FF400426C4B1A602C46A4E06B4A137843F0100313701022694B1A700422023B3E
:401500001A702C4697E0002000F074F92C4692E014F0020F36D15D4B1A78D2B2584B1B78DBB29A4210D2594A1378DBB255490968CB5CDBB254490B7004214F4B1970137813
:401540000133DBB2137076E0514B1B7813F0020F0CD0504A137843F00A0313706022474B1A704FF400424C4B1A6064E04B4A137843F0100313701022494B1A700422023BB6
:401580001A7058E0424B1B7813F0020F0CD0414A137843F09A0313706022384B1A704FF400423D4B1A6046E03C4A137843F01003137010223A4B1A700422023B1A70354A2D
:4015C000137843F09003137035E0364A1378DBB2354908682C490978C9B2C15413780133DBB213701278D2B2304B1B78DBB29A4203D21022204B1A701DE0254B1B7813F0A3
:40160000020F0CD0234A137843F00903137060221A4B1A704FF400421F4B1A600BE01F4A137843F0100313700022134B1A7002E0002000F0DFF814F0200F1CD00F4B1B78A2
:4016400013F0080F01D0012300E00223114A11780B431370114A137803F0EF0313701022064B1A7038BD054B1B7813F0100F02D11022024B1A7038BDD7490040FB85FF1F7D
:401680000486FF1F0886FF1FD8490040FF85FF1FFD85FF1FFC85FF1F80E100E0D6490040D9490040FE85FF1F0086FF1F0C86FF1F1A4B1B78DBB2102B29D1194B1B7813F0E9
:4016C000080F26D14FF40042164B1A604000C0B229B140F001004922104B1A7002E045220E4B1A70104B1870012201331A700F4B1B7813F0010FFAD00C4B1B7803F00A03CB
:401700000A2B08D11022054B1A700320704702207047012070470020704700BFFB85FF1FD949004080E100E0D8490040D74900400A4B1B7813F0040F0ED01023074A137089
:401740000421023A1170064A1370064B1B7813F0210FFAD00020704702207047D9490040FB85FF1FD7490040114B1B7813F0040F1BD0104B18700422013B1A7046220E4B43
:401780001A700E4B1B7813F0010FFAD00B4B1B7813F0020F04D16022074B1A70002070476022054B1A70032070470220704700BFD9490040D8490040FB85FF1FD749004040
:4017C0000B4A7F2313708021517007E0DA0002F1804202F5F042013BDBB21370002BF5D1DB0003F1804303F5F04300221A707047DC84FF1F01BE704710B5044605E0084BD6
:40180000186802F061F8A4F50044B4F5004FF6D8034B586800FB04F002F056F810BD00BFE484FF1F08B5034B1B7A00FB03F002F04BF808BDE484FF1F70B504460E46074BC8
:401840001D681F2802D90020FFF7D4FF04F01F04103455F8240045F8246070BD08ED00E038B504460D46072902D90020FFF7C2FF1F2C02D90020FFF7BDFF04F01F0000F1E1
:40188000604000F564406D01EDB2057038BD00BF134B1B78DBB20360124A127843EA02230360114A127843EA024303600F4A127843EA026303600E4B1B78DBB243600D4A38
:4018C000127843EA022343600B4A127843EA024343600A4A127843EA02634360704700BF0301004904010049EC46004002010049010100490001004905010049060100495F
:40190000024A137843F080031370704772640040014B1880704700BF04680040014B1880704700BF84680040014B1880704700BF4468004008B50E4A137803F0C00343F06F
:40194000090313702032137843F0010313700132137843F0010313704FF41660FFF7D8FF4FF41660FFF7DAFF0020FFF7DDFF08BD7264004008B5054B1B7823B9FFF7DAFFA3
:401980000122024B1A70FFF7BBFF08BDC585FF1F10B59DF80840012C51D1013809282ED8DFE800F0052D2D052D2D0F192D230F2B03D92548007840B222E02448007840B23D
:4019C0001EE00F2B03D92248007840B218E02148007840B214E00F2B03D91F48007840B20EE01E48007840B20AE00F2B03D91C48007840B204E01B48007840B200E000201C
:401A000001EB401101FB02F1C90B8AB20D2B0BD8C3F10E0289B211418AB2611E124800EB810101338B7005E0631E0F4901EB83030F219970013C0C4B23F8242010BD002004
:401A4000FFF7D8FE10BD00BF180100491C010049190100491D0100491A0100491E0100491B0100491F010049C885FF1FF8B5074601F032FF06460D4D2B7843F003032B703E
:401A80000B4C237843F0030323700A4B1F700320FFF7C8FE2B7803F0FC032B70237803F0FC032370304601F01BFFF8BDF8460040F9460040925800400022304B1A710128A7
:401AC0005BD170B574222E4B1A70002402331C700A2601331E707F232A4A13700132147001321370284B1C7001331C7001331C7001250A331D70502203F527631A702722E9
:401B000001331A702C2201331A7001331C70552203331A705A2201331A70052201331A70022202331A70122201331A70282201331A70EB2201331A704420FFF797FF5822B3
:401B4000124B1A7001331C7005331D7001331D7001331C7001331E704FF4FA220C4B1A602946284600F0AEF92946072000F02EFA08491D20FFF760FE70BD7047C885FF1F33
:401B8000004E0040044E0040084E0040945800401086FF1F911E0000F0B583B0274D01272F70274E00247471102000F079F9102000F0FAF904211D20FFF752FE0420214B72
:401BC000187001331C7007331C701F4A137843F0180313701D4B1C7003F2F5231C7001331C700A22A3F209331A7001331C7002331C705B2205331A705E2201331A70043309
:401C00001C701423124A137000974FF4004249F2DA01FFF7BDFE2B78013B06EB83039A780C4B1A702B78013B36F823200A4B1A802878FFF741FF03B0F0BD00BFF484FF1F0C
:401C4000C885FF1F96580040075B004093580040014E00400E4E00400C4E004070B501F03BFE06462A4B1B782A4B1A7842F001021A701A7842F010021A7010331A7842F069
:401C800001021A701A7842F010021A70224D2B7843F002032B70214C237843F0020323701F4A137843F0030313700320FFF7BAFD2B7803F0FD032B70237803F0FD032370AD
:401CC000184A137843F0060313707A22164B1A70164A137843F0020313701032137843F0020313700F3A137843F0010313701032137843F0010313704FF000530C4A136013
:401D0000A2F5C0721360304601F0EAFD70BD00BFF484FF1FAA430040F8460040F9460040915800407758004082580040A143004080E200E008B5084B9B794BB9064BDB79E8
:401D400013F0FF0F01D1FFF727FF0122024B9A71FFF784FF08BD00BFC885FF1F024A137843F0010313707047004E0040024A137803F0FE0313707047004E0040094B1B7930
:401D800013F0FF0F03D0074B5B79DBB203E0064B1B7803F00103012B01D00028EED01846704700BFC885FF1F014E0040154B1B7803F00303012B07D8134B1888023B1B8848
:401DC0009BB243EA004013E0022B0AD10E4B1888023B1B7843EA00430C4A107843EA002006E00B4B188883B2074A108843EA0040084B1B7913F0FF0F02D00022054B5A715C
:401E0000704700BF144E0040124E0040114E0040104E0040C885FF1F10B4194B1B78DBB2012B08D0164B1B78DBB2022B05D0144B1B78102302E0142300E01023102B02D015
:401E4000142B07D003E0202147F6122406E001210C4C03E04FF4FA714FF4FA640A4B1B6893FBF1F100FB04F090FBF1F3074A926802FB04F292FBF1F0181A10BC704700BF5D
:401E8000F484FF1F40420F001086FF1FC885FF1F704700BF014B188880B2704780400040034B1A7800F0F80010431870704700BF82400040024B187800F00700704700BF2C
:401EC0008240004070B505460E46FFF7F3FF0446FFF7E0FFA84256D02B4B1B7803F0010294B900B185B938B9284B1D80284A137803F0BF03137070BD254A137843F04003F7
:401F00001370224B1D8070BD22B3002321490B7001240F310C7004310B700C390B7803F07F030B701A4B1B7813F0080F00D08DB9194B18800721013B1970164B1B7813F0B9
:401F4000010FFAD110490B7803F0FE030B700021104B19700C4B1B7813F0010F0DD00E4B1D800EB1032200E001220A4B1A70094B1B7813F0010FFAD170BD044B1D80024977
:401F80000B7813430B7070BDA243004080400040824000400140004002400040014B188880B2704704410040034B1A7800F0F80010431870704700BF06410040024B18789F
:401FC00000F00700704700BF0641004070B504460D46FFF7F3FF0646FFF7E0FFA04257D02C4B1B7803F00203DAB296B900B184B938B9294B1C80294A137803F0BF03137017
:4020000070BD264A137843F040031370224B1C8070BD22B3002322490B70022613310E7004390B7008390B7803F07F030B701B4B1B7813F0080F00D08CB91A4B18800721C8
:40204000013B1970164B1B7813F0010FFAD111490B7803F0FD030B700021114B19700D4B1B7813F0020F0DD00E4B1C800DB1032200E001220A4B1A70094B1B7813F0010FE8
:40208000FAD170BD044B1C8002490B7813430B7070BD00BFA143004004410040064100400140004002400040054A137843F0010313701032137843F001031370704700BFEE
:4020C000A8430040054B1A7802F0FD021A701A7800F0020010431870704700BF20580040014B1870704700BF805B0040094B1B7803F00C035B08084A127812F0040F00D059
:40210000013303F1924393F82031DBB2034A1370704700BF20580040215800400846004008B51822064B1A700133002018701A78D2B21A70FFF7C6FFFFF7D8FF08BD00BF9A
:402140002058004008B5074B1B7823B9FFF7E8FF0122044B1A70FFF7A7FF0020FFF7C0FF08BD00BFD485FF1F10B501F0BDFB01F0EBFB58B9012001F0C9FB072802D04FF078
:40218000FF3400E0072401F005FC00E00424204610BD00BF30B583B01D4B1B7813F0020F2BD105461A4B1B789B0828D1184B1B7813F0010F12D0174B1B788DF8043002E078
:4021C0000120FFF72FFB124B1B7813F0010FF7D0104B1B788DF80530002400E007247CB99DF80430012B03D19DF805302B8007E09DF805305B422B8002E0102400E0072470
:40220000072C01D001F0C6FB204603B030BD00BF224700402047004070B50646FFF7A4FF0546072817D112E0072D04D00B4B1B7813F0020F0FD1072D03D13046FFF7AAFF73
:4022400005460A20FFF7EEFA0A3CA4B201E04FF4FA54002CE8D1284670BD00BF2247004038B50546022406E02846FFF7D5FF034618B9013CE4B2002CF6D1184638BD00BFA7
:4022800010B5002407E02046FEF7BEFE2046FEF7F5FE0134E4B2022CF5D9FF22014B1A7010BD00BFF584FF1F10B50446FEF792FE2046FEF7C5FE10BD10B50446FFF7E0FFA5
:4022C0002046FFF7F1FF014B1C7010BDF584FF1F10B5002404E02046FEF70EFF0134E4B2012CF8D9FF22014B1A7010BDF684FF1F10B50446FFF7ECFF2046FEF7DFFE014B88
:402300001C7010BDF684FF1F084A137843F0010313701032137843F00103137002F64D32137843F001031370704700BFA3430040014B1870704700BF034F0040014B188076
:40234000704700BF044F0040014B1880704700BF064F004008B5164A137803F0010313700232137803F0FC031370124B1A7802F0CF021A701A7842F030021A701A7802F0CF
:40238000F0021A701A7842F00F021A700A4A137843F00103137045F6BF50FFF7CFFF45F6BF50FFF7D1FF0820FFF7C2FF08BD00BF004F00400B4F0040014F004008B5054B62
:4023C0001B7823B9FFF7C6FF0122024B1A70FFF79BFF08BDD585FF1F024B1B68C3F88400704700BF08ED00E04001C0B2014B1870704700BF11E400E04FF40032014B1A6085
:40240000704700BF00E100E04FF40032014B1A60704700BF80E100E010B50446FFF7F4FF2046FFF7D9FF0320FFF7DEFFFFF7E4FF10BD00BF014B1B68D864704708ED00E055
:402440004001C0B2014B1870704700BF03E400E00822014B1A60704700E100E00822014B1A60704780E100E010B50446FFF7F6FF2046FFF7DFFF0720FFF7E2FFFFF7E8FF39
:4024800010BD00BFF8B501F027FA0746404A137843F0010313701032137843F00103137001263C4B1E700225943B1D7002F5E2521B32137803F07F0313700020FFF7B2F9B3
:4024C000354C237803F0F9032370344A137803F0DF0313702378334323703046FFF7A2F92820FFF79FF92E4B1A7802F07F021A701A7802F0BF021A7023782B43237028467B
:40250000FFF790F9237843F0040323700024254B1C7001331C70384601F0E2F906211720FFF79EF920491720FFF786F906211820FFF796F91D491820FFF77EF9062115203F
:40254000FFF78EF91A491520FFF776F906212046FFF786F917492046FFF76EF906213046FFF77EF914493046FFF766F906212846FFF776F911492846FFF75EF906210C2028
:40258000FFF76EF90E490C20FFF756F9F8BD00BFA54300409D6000409443004012600040F8510040846000405D2F0000452D0000592F0000B92E0000E92E00001D2F0000D7
:4025C000652F000008B5214B18700023204A1370204A1370204A1370204A1370204A1370204A1370204A1370204B4FF400021A604FF080721A604FF400121A6001221A60B7
:4026000002221A6004221A6011B1012906D00BE0174A137803F0FE0313700AE0144A137843F00103137004E0114A137803F0FE03137003220F4B1A708022203B1A700120CD
:4026400001F042F904220C4B1A7008BD2D86FF1F3086FF1F4C86FF1F4F86FF1F4486FF1F4E86FF1F5186FF1F2C86FF1F00E100E009600040286000401260004038B5044620
:402680000D46064B1B7823B9FFF7FCFE0122034B1A7029462046FFF795FF38BDD685FF1F00230A4A13700A4A13700A4A13700A4A13700A4A13700A4A13700A4A1370032226
:4026C000094B1A708022203B1A7070473086FF1F4C86FF1F4F86FF1F4486FF1F4E86FF1F5186FF1F2C86FF1F2860004000EB40008300024A13445878704700BF5486FF1F11
:40270000431EDBB2072B3CD8F0B4074600EB4004A3001C4C2344DB889BB2C3F500739A4208D900EB400293002344DA8892B2C2F5007292B200EB4004A300124C2344DB7817
:4027400043EA1223104D04012E192B55D3B2737039B909E0CE5C3D010C4C665501339BB200E000239A42F5D8420002449300054A134400225A705A79D2B20001044B1A5421
:40278000F0BC70475486FF1FFC5F004078600040FE5F0040431EDBB2072B0BD8420002449300054A134400225A705A79D2B20001024B1A54704700BF5486FF1FFE5F0040A0
:4027C0000246002001E0013080B2135C002BFAD1704700BF10B4FF2400230EE0094AD25C02EB42029100084A11448A7AD2B2824201D11C4602230133DBB2012BEED92046B1
:4028000010BC70471C86FF1F5486FF1F10B5204C2079FFF7DFFF237813F0800F0ED06378DBB2212B2FD11B4B07221A80C0EBC000194A1044586000F0F3FA10BD144B5B7821
:40284000DBB2202B02D0222B10D01EE0114A07231380C0EBC00310490B4453600F4A135C43F00103135400F003FB10BD084B9B780B4A22F81030094A135C43F0020313540B
:4028800000F08CF910BD002010BD002010BD00BF006000403886FF1FF884FF1F1486FF1F2886FF1F10B500241F4B1C701F4B1C705C700AE01E4B185DC0B2431EDBB2072BA8
:4028C00001D8FFF767FF0134E4B2012CF2D9194B1B7813F0FF0F1AD0154B1B7813F0FF0F17D0154B1B7813F0FF0F14D0114B1B78DBB2082B11D80E4B1B78DBB2082B0ED8F1
:402900000D4B1B78DBB2082B0BD8002010BD012010BD012010BD012010BD012010BD012010BD012010BD00BFD785FF1F1486FF1F2086FF1F1886FF1F1C86FF1F2DE9F84306
:402940008046234B1B78234AD65CF6B2FFF738FF05460027344606EB460293001E4A13441B899BB29D4209D906EB460293001A4A1344B3F808901FFA89F900E0A9464A462F
:4029800008EB07013046FFF7BBFEC9EB0505ADB245B906EB460293000F4A13441B899BB2994510D14F44BFB204EB440293000A4A13445B7813F0FF0FF6D025B90022114638
:4029C0003046FFF79DFE002DC4D1BDE8F88300BFD785FF1F1886FF1F5486FF1F08B5034B1B78034AD05CFFF781FE08BDD785FF1F1886FF1FC37803F0030390F90200002893
:402A00000FDA032B06D002F001030B48C15442F001020EE0C2F380030848C15442F0040207E0032B05D0C2F340030548C15442F002021046704700BF1886FF1F1C86FF1F91
:402A40002086FF1F1D4B19781D4A13889BB20B449BB2138000220FE01A494B681B78DBB2194883544B6801334B600132D2B20B889BB2013B9BB20B80124B1B889BB20BB156
:402A8000072AE9D90D4B1B78DBB2082B00D05AB10E490B7883F080030B700F210C4B197002210C4B197004E0022309490B7009490B70094B1A70014B1A7070472C86FF1F61
:402AC0002E86FF1F3886FF1F00600040C286FF1F4D86FF1F3086FF1F5086FF1F0222074B1A708022064B1A700F22064B1A700023054A1370054A1370012070473086FF1F6D
:402B0000C286FF1F4D86FF1F2C86FF1F5086FF1F08B5FFF797FF08BD10B4194B197801F00F010239C9B2174A13889BB20B449BB21380002011E0144A5468144B1B5CDBB2F6
:402B400023705368013353600130C0B20139C9B213889BB2013B9BB213800B4B1B889BB20BB10029E7D10A4B19700A4A137883F0800313700B22084B1A7010BC704700BF5F
:402B8000296000402E86FF1F3886FF1F006000405086FF1FC286FF1F4D86FF1F0623064A1370064A13708022054B1A700022054B1A700120704700BF3086FF1F4D86FF1F10
:402BC000C286FF1F5086FF1F064B9B6843B1054B9A6810709A6804490988518000229A60704700BF3886FF1F2E86FF1F08B5134B1A78D2B21A701B78DBB213F0800F02D031
:402C00000F4A137008BD0220FFF7DEFF0D4B1B7803F06003202B05D0402B06D043B900F093FC06E000F0D2FE03E000F037FE00E0002010B90322024B1A7008BD28600040E1
:402C40004D86FF1F0060004008B5094B1978094A13889BB20B449BB213800022064B1A700120FFF7B1FF0322044B1A7008BD00BF2C86FF1F2E86FF1F3086FF1F4D86FF1F0A
:402C800008B50B4B1B78DBB2042B06D0062B07D0022B0BD1FFF7D8FF08BDFFF73DFF08BD0320FFF791FF0322024B1A7008BD00BF3086FF1F4D86FF1F08B50022044B1A709C
:402CC0000120FFF781FF0322024B1A7008BD00BF3086FF1F4D86FF1F08B50B4B1B7813F0FF0F07D0084A137843F0800307490B70002313700022064B1A700120FFF764FFEF
:402D00000322044B1A7008BD4E86FF1F086000403086FF1F4D86FF1F08B5094B1B78DBB2042B06D0062B07D0022B07D1FFF7F0FE08BDFFF7C1FF08BDFFF7CEFF08BD00BFC3
:402D40003086FF1F08B5284B1B78DBB213F0100F48D013F0800F0CD003F00F03012B16D1FFF744FF214B1B7813F0800F11D1012312E013F0400F03D0FFF7CEFF01230BE0B6
:402D800013F0200F07D0FFF77BFF012304E0002302E0002300E0002323B3134B1B7813F0800F1FD1124B1B78124A12781343124A13701278D2B2934214D10C4B1B78DBB2D4
:402DC000094A127812F0800F07D1084B1B78DBB2054A1370137803F00F03044A1278D2B29342EAD108BD00BF286000404D86FF1FC286FF1F5086FF1F296000400022064BF9
:402E00001A80064B9B682BB1044A916800230B7092685380704700BF2E86FF1F3886FF1F08B50F4B1B889BB213B9FFF757FE15E002220C4B1A7000220B4B1A70FFF7DEFF05
:402E40000A4AD179937943EA0123054A128892B2934201D2024A1380FFF7F4FD012008BD3886FF1F3086FF1FC286FF1F0060004008B504220B4B1A7080220B4B1A70FFF7E5
:402E8000BDFF0A4AD179937943EA0123084A128892B2934201D2064A13800B22054B1A70012008BD3086FF1FC286FF1F006000403886FF1F4D86FF1F0122094B1A700F3BC1
:402EC0009B7C084B1B7B03F00303934204D0054AD37B83F08003D3730122024B5A7370470B6000405486FF1F02220A4B1A700F3B93F82230084B1B7E03F00303012B04D0B1
:402F0000054AD37E83F08003D3760122024B5A76704700BF0B6000405486FF1F04220C4B1A700F3B93F832300A4B93F8243003F00303012B06D0074A92F8273083F08003C4
:402F400082F827300122034B83F82520704700BF0B6000405486FF1F704700BF08B5FFF79FFB08BD08B500F0A5FC08BD70B588B0054603AC174E0FCE0FC43368237035B319
:402F800022232B7003236B7001A8FEF781FC002402231AE008AA224412F81C2C08A901EB121111F8141CE954581C00212954981C02F00F0208AE324412F8142C2A54DA1C7F
:402FC000A9540134E4B20433DBB2212BE2D908B070BD00BF4C57000010B401233EE019461A010C242148845403EB4300820020480244527912F0FF0F13D003EB4300820034
:403000001B480244127912F0800F04D01801194A024494700AE01801164A02440820907004E01801134A0244802090704800084482000F480244D488E4B208010B490144D9
:403040008C71D088C0F30720C871D088C0B20871D288C2F307224A710133DBB2082BBED9FF22054B1A7010BC704700BF706000405486FF1FFC5F00400A600040074B1A78B9
:40308000074B03EBC2035B681A7C824204D9C0001030184440687047002070472D86FF1F60570000F8B5404B1B7813F0FF0F79D03D4B18780138C0B2FFF7E0FF047AC26892
:4030C0003A4B1878C0B200236AE01178884264D13749095CC9B25578A9425ED1917801F07F01D67806F00306DFF8C8E04D000D44AF000EEB07054FF0000C85F803C092F860
:4031000002C085F804C092F803C00EF807C097882F8192F90250002D0DDA012E01D1072700E00D274E000E44B500224E35446F7101266E700CE0012E01D1052700E0092723
:403140004E000E44B5001B4E35446F7100266E70DFF868E00F010EEB07060125B57001FA05F529448D00134929440D89C5F307250EF807500D89EDB27570CE88F6B20E4DB2
:403180003D44AE71CE88C6F30726EE71CE88F6B22E71C988C1F30721697108320133DBB2A34292D3F8BD00BF4F86FF1F4486FF1FC086FF1F5486FF1F70600040FC5F004095
:4031C000034B1A78034B03EBC2035868704700BF2D86FF1F6057000008B5084B18780138C0B2FFF74BFF30B142681279023200EBC203586808BD002008BD00BF4F86FF1F8F
:403200002DE9F047002310E0724D5900CA189600AC190022AA55A270E2702281A272627034462C4462710133DBB2082BECD940B90AE000226849CA546849CA540133DBB2F1
:4032400000E00023012BF4D9654B1B7813F0FF0F00F0BD80624B18780138C0B2FFF70EFF80464368DB7913F0400F05D05D4A137843F00103137004E05A4A137803F0FE0307
:40328000137098F808704FF0000A01266FE0D8F80C50002467E0AB7803F07F039E425FD1314606EB460083004A4803441B899BB2A888834206D206EB460E4FEA8E03454A1F
:4032C000134418812B784448C35CDBB26878834246D195F802C0DFF8FCE04B000B4498000EEB000383F804C0EB780EF80030EB7803F0030395F90200002813DA012B02D13F
:403300004FF0070901E04FF00D09DFF8C8E04B0003EB010C4FEA8C00704480F805900121417012E0012B02D14FF0050901E04FF00909DFF8A0E04B0003EB010C4FEA8C0018
:40334000704480F8059000214170AB790A2B01D0022B05D1524631462846FFF74BFB824608350134E4B2BC4295D30136F6B2082E8DD9D8F80C0000220CE0837803F07F03C9
:4033800010F8084B03EB43039900124B19448C720132D2B2BA42F0D3FFF71EFF124B1860002301210FE00B4D4A00501884002C44E380228992B213449BB203F0010213445A
:4033C0009BB20131C9B20829EDD9FFF705FEBDE8F08700BF5486FF1FC086FF1F3486FF1F4F86FF1F5186FF1F4886FF1F08B5154B1B7903F07F035A1ED2B2072A20D859005C
:4034000019448A0010490A44917841F0010191700021D170517841F002015170127912F0800F05D01B01094A1A448D23937004E01B01064A1A4489239370FFF7AFFB08BD6E
:40344000002008BD006000405486FF1FFC5F0040274B1B7903F07F035A1ED2B2072A44D810B5590019448A0022490A44917801F0FE0191700021D1701F4C1801215C01F064
:403480007F012154517801F0FD015170127912F0800F13D003EB43018A0016490A445278D2B2012A04D1224602440C23937019E01B01114A1A440D23937013E003EB4301E2
:4034C0008A000C490A445278D2B2012A05D11B01094A1A440823937004E01B01064A1A4409239370FFF75AFB10BD0020704700BF006000405486FF1FFC5F004010B50E4B79
:403500001C79E4B20D4B18780138C0B2FFF7B6FD43681B799C4201D9022C0AD8084A135DDBB208490B55044B9B78DBB21355012010BD002010BD00BF006000404F86FF1F99
:40354000C086FF1F3486FF1F10B59C4B1B78DBB200219B4A118013F0800F00F0AD80974A5278D2B20A2A00F27481DFE812F06900720172017201720172010B007201920032
:4035800072019A008D4BDB78DBB2012B09D1FFF717FE42688A4B5A6012221A80FFF740FC10BD864BDB78DBB2022B13D1834B9878FFF764FD002800F04E814268804B5A6022
:4035C0005A68D1785A68927842EA01221A80FFF727FC10BD794BDB78DBB2032B05D02CE00A7811440133DBB201E000237549734A9278D2B2934203D20A7812F0FF0FEFD1D1
:403600006E4B9B7813F0FF0F0BD06C4B9B78DBB26D4A127C934204D16C4C2046FFF7A6FC21460B7813F0FF0F00F017810B78644A13805160FFF7F4FB10BD00F0C7F910BDAF
:4036400013F0030317D0022B40F009815C490B805A4B1B7903F07F0303EB43039A005C4B1A449278D2B25B4B1A7000225A704B60FFF7D6FB10BD524902230B80564B1A785B
:40368000D2B2544B1A7000225A704B60FFF7C8FB10BD4B4B01221A80504A5A60FFF7C0FB10BD474A01231380444B1B794C490B445360FFF7B5FB10BD404A5278013A0A2AE3
:4036C00000F2CF80DFE812F04C00CD009800CD000B00CD00CD00CD001300CD003000374B9B78DBB23F4A1370FFF758FA10BD334B9B7803F0FF041BB1601EC0B2FFF7BEFC8A
:4037000004B110B9002C40F0AE80344B1B78DBB29C4206D0314B1C700120334B1870FFF76FFDFFF73BFA10BDFFF7E8FE002800F09C80224A1379DBB21279D2B22B490A7013
:403740002B4AD25CD2B22649CB5CDBB29A4204D00122254B1A70FFF7A5FCFFF71FFA10BD03F00303012B17D04BB1022B7FD1134B9B7813F0FF0F7CD1FFF76AFE10BD0F4BE6
:403780009B78DBB2012B76D1134A137803F0FD031370FFF703FA10BD084B1B79DBB2012B6BD8064B98781B79DBB21249CA5C22EA0002CA54FFF7F2F910BD00BF00600040B9
:4037C0003886FF1FC8570000AC580000C886FF1F5486FF1FD885FF1F5186FF1F4F86FF1FC086FF1F4E86FF1F4C86FF1F4486FF1F3486FF1FC486FF1F03F00303012B17D089
:403800004BB1022B3BD1224B9B7813F0FF0F38D1FFF7ECFD10BD1E4B9B78DBB2012B32D11C4A137843F002031370FFF7B7F910BD174B1B79DBB2012B27D8154B98781B7904
:40384000DBB21549CA5C22EA0002CA54FFF7A6F910BD002010BD002010BD002010BD002010BD002010BD002010BD002010BD002010BD002010BD002010BD002010BD00205A
:4038800010BD002010BD002010BD002010BD00BF006000405186FF1FC486FF1F044B1B7813F0800F01D0024B5B780020704700BF00600040024B1878C0F38010704700BF87
:4038C0008F450040000000000230800803D000BF01380046FCD17047EFF3108072B6704780F31088704700BF08B5FFF7F5FF064A137843F0080313701032137843F0080345
:403900001370FFF7EDFF08BDA04300400C4B1B7813F0020F0FD00B4BB6221A70E1221A700E221A7002331B7813F0020F05D1054B187007207047042070470920704700BF7C
:40394000224700402047004010B5FFF7C5FF0F4B1B78A3B901220D4B1A700D4B1B6813F0010F0ED00A4A136823F00103136000BF00BF00BF0122054B5A60002402E004246D
:4039800000E00024FFF7ACFF204610BDDC85FF1F0400084008B5FFF79FFF0A4B00221A705B68012B0AD1084A136843F00103136000BF00BF00BF0022024B5A60FFF790FFE6
:4039C00008BD00BFDC85FF1F0400084008B5144B1B7803F00303012B02D0022B04D00FE00F4B1B79DBB20CE00D4B1B7903F07F0303EB43039A000B4B1A44937ADBB200E01E
:403A00000023022B07D8084A1268D35C022B04D1FEF7FCFE08BD002008BD002008BD00BF006000405486FF1F4886FF1F81F0004102E000BF83F0004330B54FEA41044FEAF4
:403A4000430594EA050F08BF90EA020F1FBF54EA000C55EA020C7FEA645C7FEA655C00F0E2804FEA5454D4EB5555B8BF6D420CDD2C4480EA020281EA030382EA000083EA7F
:403A8000010180EA020281EA0303362D88BF30BD11F0004F4FEA01314FF4801C4CEA113102D0404261EB410113F0004F4FEA03334CEA133302D0524263EB430394EA050FD1
:403AC00000F0A780A4F10104D5F1200E0DDB02FA0EFC22FA05F2801841F1000103FA0EF2801843FA05F359410EE0A5F120050EF1200E012A03FA0EFC28BF4CF0020C43FA7B
:403B000005F3C01851EBE37101F0004507D54FF0000EDCF1000C7EEB00006EEB0101B1F5801F1BD3B1F5001F0CD349085FEA30004FEA3C0C04F101044FEA445212F5800FA8
:403B400080F09A80BCF1004F08BF5FEA500C50F1000041EB045141EA050130BD5FEA4C0C404141EB010111F4801FA4F10104E9D191F0000F04BF01460020B1FA81F308BF8B
:403B80002033A3F10B03B3F120020CDA0C3208DD02F1140CC2F10C0201FA0CF021FA02F10CE002F11402D8BFC2F1200C01FA02F120FA0CFCDCBF41EA0C019040E41AA2BFEB
:403BC00001EB0451294330BD6FEA04041F3C1CDA0C340EDC04F11404C4F1200220FA04F001FA02F340EA030021FA04F345EA030130BDC4F10C04C4F1200220FA02F001FA6B
:403C000004F340EA0300294630BD21FA04F0294630BD94F0000F83F4801306BF81F480110134013D4EE77FEA645C18BF7FEA655C29D094EA050F08BF90EA020F05D054EA6F
:403C4000000C04BF1946104630BD91EA030F1EBF0021002030BD5FEA545C05D14000494128BF41F0004130BD14F580043CBF01F5801130BD01F0004545F0FE4141F4700110
:403C80004FF0000030BD7FEA645C1ABF194610467FEA655C1CBF0B46024650EA013406BF52EA033591EA030F41F4002130BD00BF90F0000F04BF0021704730B54FF4806416
:403CC00004F132044FF000054FF0000150E700BF90F0000F04BF0021704730B54FF4806404F1320410F0004548BF40424FF000013EE700BF42004FEAE2014FEA31014FEACA
:403D000002701FBF12F07F4393F07F4F81F06051704792F0000F14BF93F07F4F704730B54FF4607401F0004521F0004120E700BF50EA010208BF704730B54FF000050AE0C1
:403D400050EA010208BF704730B511F0004502D5404261EB41014FF4806404F132045FEA915C3FF4DCAE4FF003025FEADC0C18BF03325FEADC0C18BF033202EBDC02C2F1F5
:403D8000200300FA03FC20FA02F001FA03FE40EA0E0021FA02F11444C1E600BF70B54FF0FF0C4CF4E06C1CEA11541DBF1CEA135594EA0C0F95EA0C0F00F0DEF82C4481EA57
:403DC000030621EA4C5123EA4C5350EA013518BF52EA033541F4801143F4801338D0A0FB02CE4FF00005E1FB02E506F00042E0FB03E54FF00006E1FB03569CF0000F18BFBA
:403E00004EF0010EA4F1FF04B6F5007F64F5407404D25FEA4E0E6D4146EB060642EAC62141EA55514FEAC52040EA5E504FEACE2EB4F1FD0C88BFBCF5E06F1ED8BEF1004F08
:403E400008BF5FEA500E50F1000041EB045170BD06F0004646EA010140EA020081EA0301B4EB5C04C2BFD4EB0C0541EA045170BD41F480114FF0000E013C00F3AB8014F16C
:403E8000360FDEBF002001F0004170BDC4F10004203C35DA0C341BDC04F11404C4F1200500FA05F320FA04F001FA05F240EA020001F0004221F0004110EBD37021FA04F669
:403EC00042EB06015EEA430E08BF20EAD37070BDC4F10C04C4F1200500FA04F320FA05F001FA04F240EA020001F0004110EBD37041F100015EEA430E08BF20EAD37070BD7B
:403F0000C4F1200500FA05F24EEA020E20FA04F301FA05F243EA020321FA04F001F0004121FA04F220EA020000EBD3705EEA430E08BF20EAD37070BD94F0000F0FD101F06F
:403F40000046400041EB010111F4801F08BF013CF7D041EA060195F0000F18BF704703F00046520043EB030313F4801F08BF013DF7D043EA0603704794EA0C0F0CEA1355B5
:403F800018BF95EA0C0F0CD050EA410618BF52EA4306D1D181EA030101F000414FF0000070BD50EA410606BF1046194652EA430619D094EA0C0F02D150EA013613D195EA7F
:403FC0000C0F05D152EA03361CBF104619460AD181EA030101F0004141F0FE4141F470014FF0000070BD41F0FE4141F4780170BD70B54FF0FF0C4CF4E06C1CEA11541DBF40
:404000001CEA135594EA0C0F95EA0C0F00F0A7F8A4EB050481EA030E52EA03354FEA013100F088804FEA03334FF0805545EA131343EA12634FEA022245EA111545EA106595
:404040004FEA00260EF000419D4208BF964244F1FD0404F5407402D25B084FEA3202B61A65EB03055B084FEA32024FF480104FF4002CB6EB020E75EB030E22BFB61A7546D5
:4040800040EA0C005B084FEA3202B6EB020E75EB030E22BFB61A754640EA5C005B084FEA3202B6EB020E75EB030E22BFB61A754640EA9C005B084FEA3202B6EB020E75EBE1
:4040C000030E22BFB61A754640EADC0055EA060E18D04FEA051545EA16754FEA06164FEAC30343EA52734FEAC2025FEA1C1CC0D111F4801F0BD141EA00014FF000004FF076
:40410000004CB6E711F4801F04BF01430020B4F1FD0C88BFBCF5E06F3FF6AFAEB5EB030C04BFB6EB020C5FEA500C50F1000041EB045170BD0EF0004E4EEA113114EB5C046A
:40414000C2BFD4EB0C0541EA045170BD41F480114FF0000E013C90E645EA060E8DE60CEA135594EA0C0F08BF95EA0C0F3FF43BAF94EA0C0F0AD150EA01347FF434AF95EA98
:404180000C0F7FF425AF104619462CE795EA0C0F06D152EA03353FF4FDAE1046194622E750EA410618BF52EA43067FF4C5AE50EA41047FF40DAF52EA43057FF4EBAE12E75A
:4041C0004FEA4102B2F1E04324BFB3F5001CDCF1FE5C0DD901F0004C4FEAC0024CEA5070B2F1004F40EB830008BF20F00100704711F0804F21D113F13872BCBF01F0004050
:40420000704741F480114FEA5252C2F11802C2F1200C10FA0CF320FA02F018BF40F001004FEAC1234FEAD32303FA0CFC40EA0C0023FA02F34FEA4303CCE77FEA625307D19A
:4042400050EA01331EBF4FF0FE4040F44000704701F0004040F0FE4040F40000704700BF80F0004002E000BF81F0004142001FBF5FEA410392EA030F7FEA226C7FEA236CD5
:404280006AD04FEA1262D2EB1363C1BFD218414048404140B8BF5B42192B88BF704710F0004F40F4000020F07F4018BF404211F0004F41F4000121F07F4118BF494292EABA
:4042C000030F3FD0A2F1010241FA03FC10EB0C00C3F1200301FA03F100F0004302D5494260EB4000B0F5000F13D3B0F1807F06D340084FEA310102F10102FE2A51D2B1F137
:40430000004F40EBC25008BF20F0010040EA03007047490040EB000010F4000FA2F10102EDD1B0FA80FCACF1080CB2EB0C0200FA0CF0AABF00EBC25052421843BCBFD04002
:404340001843704792F0000F81F4000106BF80F400000132013BB5E74FEA41037FEA226C18BF7FEA236C21D092EA030F04D092F0000F08BF0846704790EA010F1CBF002068
:40438000704712F07F4F04D1400028BF40F00040704712F100723CBF00F50000704700F0004343F0FE4040F4000070477FEA226216BF08467FEA23630146420206BF5FEA10
:4043C000412390EA010F40F4800070474FF0000304E000BF10F0004348BF40425FEA000C08BF704743F0964301464FF000001CE050EA010208BF70474FF000030AE000BFAC
:4044000050EA010208BF704711F0004302D5404261EB41015FEA010C02BF84460146002043F0B64308BFA3F18053A3F50003BCFA8CF2083AA3EBC25310DB01FA02FC6344B5
:4044400000FA02FCC2F12002BCF1004F20FA02F243EB020008BF20F00100704702F1200201FA02FCC2F1200250EA4C0021FA02F243EB020008BF20EADC7070474FF0FF0CE0
:404480001CEAD0521EBF1CEAD15392EA0C0F93EA0C0F6FD01A4480EA010C400218BF5FEA41211ED04FF0006343EA501043EA5111A0FB01310CF00040B1F5000F3EBF490016
:4044C00041EAD3715B0040EA010062F17F02FD2A1DD8B3F1004F40EBC25008BF20F00100704790F0000F0CF0004C08BF49024CEA502040EA51207F3AC2BFD2F1FF0340EAC5
:40450000C250704740F400004FF00003013A5DDC12F1190FDCBF00F000407047C2F10002410021FA02F1C2F1200200FA02FC5FEA310040F1000053EA4C0308BF20EADC70F6
:40454000704792F0000F00F0004C02BF400010F4000F013AF9D040EA0C0093F0000F01F0004C02BF490011F4000F013BF9D041EA0C018FE70CEAD15392EA0C0F18BF93EAC4
:404580000C0F0AD030F0004C18BF31F0004CD8D180EA010000F00040704790F0000F17BF90F0004F084691F0000F91F0004F14D092EA0C0F01D142020FD193EA0C0F03D19C
:4045C0004B0218BF084608D180EA010000F0004040F0FE4040F40000704740F0FE4040F4400070474FF0FF0C1CEAD0521EBF1CEAD15392EA0C0F93EA0C0F69D0A2EB030270
:4046000080EA010C49024FEA402037D04FF0805343EA111143EA10130CF000408B4238BF5B0042F17D024FF4000C8B4224BF5B1A40EA0C00B3EB510F24BFA3EB510340EAC3
:404640005C00B3EB910F24BFA3EB910340EA9C00B3EBD10F24BFA3EBD10340EADC001B0118BF5FEA1C1CE0D1FD2A3FF650AF8B4240EBC25008BF20F0010070470CF0004CAB
:404680004CEA50207F32C2BFD2F1FF0340EAC250704740F400004FF00003013A37E792F0000F00F0004C02BF400010F4000F013AF9D040EA0C0093F0000F01F0004C02BFF0
:4046C000490011F4000F013BF9D041EA0C0195E70CEAD15392EA0C0F08D142027FF47DAF93EA0C0F7FF470AF084676E793EA0C0F04D14B023FF44CAF08466EE730F0004C6B
:4047000018BF31F0004CCAD130F000427FF45CAF31F000437FF43CAF5FE700BF4FF0FF3C06E000BF4FF0010C02E000BF4FF0010C4DF804CD4FEA40024FEA41037FEA226C96
:4047400018BF7FEA236C11D001B052EA530C18BF90EA010F58BFB2EB030088BFC81738BF6FEAE17018BF40F0010070477FEA226C02D15FEA402C05D17FEA236CE4D15FEA54
:40478000412CE1D05DF8040B704700BF844608466146FFE70FB5FFF7C9FF002848BF10F1000F0FBD4DF808EDFFF7F4FF0CBF012000205DF808FB00BF4DF808EDFFF7EAFF70
:4047C00034BF012000205DF808FB00BF4DF808EDFFF7E0FF94BF012000205DF808FB00BF4DF808EDFFF7D2FF94BF012000205DF808FB00BF4DF808EDFFF7C8FF34BF0120FD
:4048000000205DF808FB00BF4FEA4002B2F1FE4F0FD34FF09E03B3EB12620DD94FEA002343F0004310F0004F23FA02F018BF404270474FF00000704712F1610F01D142025D
:4048400005D110F0004008BF6FF0004070474FF000007047014B1868704700BF7485FF1F0E4B70B51E460E4C0025E41AA410A54204D056F8253098470135F8E701F03AF82E
:40488000084B094C1E46E41AA4100025A54204D056F8253098470135F8E770BD0059000000590000005900000859000010B5431E0A44914204D011F8014B03F8014FF8E790
:4048C00010BD03460244934202D003F8011BFAE7704700000EB400B54FF402719CB0ADF814106FF00041049107914FF6FF711DAB02900690084853F8042BADF81610006855
:4049000002A9019300F06CF8029B00221A701CB05DF804EB03B070477485FF1F034613F8012B002AFBD1181A013870472DE9F0478E6882469E420C46914698463ED88A8957
:4049400012F4906F3AD02568096902236F1A656905EB450595FBF3F57B1C43449D4238BF1D4653050FD5294600F040FB064698B13A462169FFF79AFFA38923F4906343F037
:404980008003A38113E02A4600F08EFB064670B92169504600F0DEFA0C23CAF80030A3894FF0FF3043F04003A381BDE8F08726613E44266046466561ED1BA560464528BF46
:4049C000464649463246206800F0A8FAA36800209B1BA36023681E442660BDE8F08700002DE9F04F9DB003938B8980461C060D4616460DD50B695BB9402100F0F7FA286080
:404A0000286118B90C23C8F80030CDE040236B610023099320238DF82930DFF89CB130238DF82A3037463C4614F8013B1BB9B7EB060910D003E0252BF9D02746F3E74B466B
:404A4000324629464046FFF771FF013000F0A780099B4B4409933B78002B00F0A08000234FF0FF3204930793059206938DF853301A930126052221784E4800F041FA671C8A
:404A8000049B38B14B4A3C46801A06FA00F018430490EFE7D90644BF20228DF853201A0744BF2B228DF8532022782A2A03D0079A00210A200BE0039A111D12680391002AE8
:404AC00010DA524243F00200079204900BE027463B780134303B092B03D800FB02320121F5E701B107923B782E2B1ED17B782A2B0AD1039B02371A1D1B680392002BB8BFBE
:404B00004FF0FF33059310E0002319460593781C0A2407463A780130303A092A03D804FB01210123F5E703B1059103223978224800F0E6F940B14023CBEB000003FA00F087
:404B4000049B013718430490397806221B487E1C8DF8281000F0D4F988B1194B33B9039B073323F007030833039314E003AB00932A46144B04A94046AFF3008007E003ABE2
:404B800000932A460F4B04A9404600F093F8B0F1FF3F824603D0099B5344099342E7AB895B0601D4099801E04FF0FF301DB0BDE8F08F00BFC0580000C6580000CA5800000E
:404BC000000000002D4900002DE9F04791461F460A698B6806469342B8BF1346C9F8003091F843200C46DDF8208012B10133C9F800302368990642BFD9F800300233C9F8B1
:404C00000030256815F0060510D104F1190A07E00123524639463046C04701301AD00135E368D9F800209B1A9D42F1DB94F843302268003318BF012392060FD5E1183020A6
:404C400081F843005A1C94F845102244023382F8431003E04FF0FF30BDE8F08704F1430239463046C0470130F4D02268D9F80050E36802F00602042A08BF5D1B2269A3682E
:404C80000CBF25EAE57500259342C4BF9B1AED184FF000091A344D4509D00123224639463046C0470130D5D009F10109F3E70020BDE8F0872DE9F04317460A7E85B06E2A15
:404CC000984606460C460C9B01F1430E00F0AE8011D8632A22D009D8002A00F0BB80582A40F0CA8081F84520834955E0642A1ED0692A1CD0C0E0732A00F0B08009D86F2AE5
:404D00002ED0702A40F0B8800A6842F020020A603EE0752A24D0782A3AD0ADE01A6801F14205111D1960136884F84230A8E021681A6811F0800F02D0111D196008E011F009
:404D4000400F02F10401196002D0B2F9003000E01368002B3CDA2D225B4284F8432037E021681A6811F0800F02D0111D196007E011F0400F02F10401196001D0138800E040
:404D80001368227E5C496F2A14BF0A2208221BE078225A4984F845202268186812F0800F00F104051D6003D1550601D5038800E00368D00744BF42F0200222601BB922685D
:404DC00022F0200222601022002084F8430001E049490A226568002DA56008DB206820F0040020602BB9002D7DD175460CE0002B79D07546B3FBF2F002FB1033CB5C05F826
:404E0000013D03460028F5D1082A0BD12368DA0708D5236962689A42DEBF302305F8013C05F1FF35C5EB0E0323612EE008681A6810F0800F496903D0101D1860136808E0BF
:404E400010F0400F02F104001860136801D0198000E0196000232361754616E01A68111D1960156800216268284600F049F808B1401B6060636804E004F1420584F8422011
:404E800001232361002384F84330CDF800803B4603AA21463046FFF797FE013002D14FF0FF3026E023692A4639463046C0470130F5D023689B0710D5002504F1190907E0C2
:404EC00001234A4639463046C0470130E7D00135E368039A9B1A9D42F2DBE068039B9842B8BF184605E00B7804F1420584F842308AE705B0BDE8F083D1580000E2580000D3
:404F000010B5C9B202449042034605D01C7801308C42F8D1184610BD002010BD884210B501EB020301D8421E0BE09842FBD28118D21AD34204D013F8014D01F8014DF8E74F
:404F400010BD994204D011F8014B02F8014FF8E710BD000038B50546002944D051F8043C0C1F002BB8BFE41800F0D4F81E4A1368114613B96360146030E0A3420DD9226845
:404F8000A018834201BF18685B681218226063600C6023E0A24203D813465A68002AF9D118681918A1420BD12168014458188242196013D110685268014419605A600DE05F
:404FC00002D90C232B6009E021686018824201BF106852680918216062605C602846BDE8384000F098B838BDE885FF1F70B5CD1C25F0030508350C2D38BF0C25002D0646CF
:4050000001DBA94202D90C23336046E000F082F8234B1C681A462146A1B10B685B1B0ED40B2B03D90B60CC18CD501EE08C420BBF63684B681360636018BF0C4615E00C466E
:405040004968E9E7174C23681BB9304600F052F820602946304600F04DF8431C18D0C41C24F00304A0420DD12560304600F053F804F10B00231D20F00700C31A0ED05A42BD
:40508000E25070BD211A304600F034F80130EBD10C233360304600F03EF8002070BD00BFE885FF1FE485FF1FF8B5074615460E4621B91146BDE8F840FFF798BF1AB9FFF78E
:4050C00049FF2846F8BD00F027F885420ED929463846FFF78BFF044650B131462A46FFF7E5FB31463846FFF735FF01E03046F8BD2046F8BD38B5064C00230546084623604F
:40510000FCF7A0F8431C02D1236803B12B6038BDEC86FF1F7047704751F8040C0028BEBF091851F8043CC01804387047000000003235000053317C3934437C5749500000FF
:405140003934000053317C3934437C256400000053327C3535437C57495000003535000053317C3535437C25640000003732000053337C3732437C574950000053317C371D
:4051800032437C2564000000523A000025642E2530327500543A000025732C25730A00000021007F2200070000AED580A83FD300408D142000A1C8DA1281CFD9F1DB40A48D
:4051C000A6AF000000000000003E5B4F5B3E3E6B4F6B3E1C3E7C3E1C183C7E3C181C577D571C1C5E7F5E1C00183C1800FFE7C3E7FF0018241800FFE7DBE7FF30483A060E50
:405200002629792926407F050507407F05253F5A3CE73C5A7F3E1C1C08081C1C3E7F14227F22145F5F005F5F06097F017F006689956A606060606094A2FFA29408047E0416
:405240000810207E201008082A1C08081C2A08081E101010100C1E0C1E0C30383E3830060E3E0E06000000000000005F00000007000700147F147F14242A7F2A122313086C
:40528000646236495620500008070300001C2241000041221C002A1C7F1C2A08083E080800807030000808080808000060600020100804023E5149453E00427F400072490D
:4052C0004949462141494D331814127F1027454545393C4A49493141211109073649494936464949291E000014000000403400000008142241141414141400412214080291
:40530000015909063E415D594E7C1211127C7F494949363E414141227F4141413E7F494949417F090909013E414151737F0808087F00417F41002040413F017F0814224171
:405340007F404040407F021C027F7F0408107F3E4141413E7F090909063E4151215E7F09192946264949493203017F01033F4040403F1F2040201F3F4038403F63140814B9
:405380006303047804036159494D43007F4141410204081020004141417F04020102044040404040000307080020545478407F284444383844444428384444287F385454F6
:4053C000541800087E090218A4A49C787F0804047800447D40002040403D007F1028440000417F40007C047804787C080404783844444438FC1824241818242418FC7C083C
:40540000040408485454542404043F44243C4040207C1C2040201C3C4030403C44281028444C9090907C4464544C4400083641000000770000004136080002010204023C65
:405440002623263C1EA1A161123A4040207A385454555921555579412254547842215554784020545579400C1E5272123955555559395454545939555454580000457C4110
:405480000002457D420001457C407D1211127DF0282528F07C545545002054547C547C0A097F4932494949323A4444443A324A4848303A4141217A3A42402078009DA0A0C4
:4054C0007D3D4242423D3D4040403D3C24FF2424487E4943662B2FFC2F2BFF0929F620C0887E090320545479410000447D413048484A32384040227A007A0A0A727D0D19D6
:40550000317D2629292F28262929292630484D4020380808080808080808382F10C8ACBA2F102834FA00007B000008142A142222142A1408AA005500AAAA55AA55AA00008C
:4055400000FF00101010FF00141414FF001010FF00FF1010F010F0141414FC001414F700FF0000FF00FF1414F404FC141417101F10101F101F1414141F00101010F00000CD
:4055800000001F101010101F10101010F010000000FF101010101010101010FF10000000FF140000FF00FF00001F10170000FC04F414141710171414F404F40000FF00F7D4
:4055C00014141414141414F700F7141414171410101F101F141414F4141010F010F000001F101F0000001F14000000FC140000F010F01010FF10FF141414FF141010101FBB
:4056000000000000F010FFFFFFFFFFF0F0F0F0F0FFFFFF0000000000FFFF0F0F0F0F0F3844443844FC4A4A4A347E02020606027E027E0263554941633844443C04407E201C
:405640001E2006027E020299A5E7A5991C2A492A1C4C7201724C304A4D4D303048784830BC625A463D3E494949007E0101017E2A2A2A2A2A44445F444440514A44404044CA
:405680004A51400000FF0103E080FF000008086B6B083612362436060F090F06000018180000001010003040FF0101001F01011E00191D1712003C3C3C3C00000000000065
:4056C0000D510040005B00400D510040005B0040035B00402443004040401010040000000D510040045B00400D510040045B0040035B004024430040088020204000000088
:40570000835A0040244300400C510040835A004080008010C84900401900004F00400C00305100404000C0510040100000000140001000140140000800400140000A004CEF
:405740000140000200500140200000003031323334353637383941424344454600000000010000006857000001000000AC58000000000000000000000100000080570000F6
:40578000010000006858000003000000AC5700000000000000000000000000000000000000000000A8570000020A000000008103080002000100820240000A0001000302B4
:4057C00040000A0002030000040309042C0343007900700072006500730073002000530065006D00690063006F006E0064007500630074006F0072001003550053004200B2
:4058000055004100520054003803430044004300200043006F006D006D0075006E00690063006100740069006F006E00200049006E00740065007200660061006300650000
:40584000260343004400430020004400610074006100200049006E00740065007200660061006300650000000902430002010180FA090400000102020103052400100104CA
:40588000240202052406000105240100010705810308000A09040100020A0000040705820240000007050302400000001201000202000008B40432F20100010280014300C1
:4058C000232D302B2000686C4C00656667454647003031323334353637383941424344454600303132333435363738396162636465660000F8B500BFF8BC08BC9E46704736
:405900004D000000C1120000F8B500BFF8BC08BC9E4670472900000028590000C880FF1FB00400007801000000000000FF0000007D000000400000000000000000000000CF
:405940000000000000000000000000000000000000000000000000000000000000000000000000000000000000000000000000000000000000000000000000000000000027
:4059800000000000000000000000000000000000000000000000000000000000000000000000000000000000000000000000000000000000000000000000000000000000E7
:4059C00000000000000000000000000000000000000000000000000000000000000000000000000000000000000000000000000000000000000000000000000000000000A7
:405A00000000000000000000000000000000000000000000000000000000000000000000000000000000000000000000000000000000000000000000000000000000000066
:405A40000000000000000000000000000000000000000000000000000000000000000000000000000000000000000000000000000000000000000000000000000000000026
:405A800000000000000000000000000000000000000000000000000000000000000000000000000000000000000000000000000000000000000000000000000000000000E6
:405AC00000000000000000000000000000000000000000000000000000000000000000000000000000000000000000000000000000000000000000000000000000000000A6
:405B00000000000000000000000000000000000000000000000000000000000000000000000000000000000000000000000000000000000000000000000000000000000065
:405B40000000000000000000000000000000000000000000000000000000000000000000000000000000000000000000000000000000000000000000000000000000000025
:405B800000000000000000000000000000000000000000000000000000000000000000000000000000000000000000000000000000000000000000000000000000000000E5
:405BC00000000000000000000000000000000000000000000000000000000000000000000000000000000000000000000000000000000000000000000000000000000000A5
:405C00000000000000000000000000000000000000000000000000000000000000000000000000000000000000000000000000000000000000000000000000000000000064
:405C40000000000000000000000000000000000000000000000000000000000000000000000000000000000000000000000000000000000000000000000000000000000024
:405C800000000000000000000000000000000000000000000000000000000000000000000000000000000000000000000000000000000000000000000000000000000000E4
:405CC00000000000000000000000000000000000000000000000000000000000000000000000000000000000000000000000000000000000000000000000000000000000A4
:405D00000000000000000000000000000000000000000000000000000000000000000000000000000000000000000000000000000000000000000000F086FF1F7F800000D0
:405D4000000400000000E02EC05D00001800000000366E0101FFFF0000C2010000000800C201000000080000A12000000000020000000000000000000000000000000000DF
:405D80000000000000000000000000000000000000000000BE58000000000000000000000000000000000000000000000000000000000000000000000000000000000000CD
:405DC00000000000000000000000000000000000000000001485FF1F00000000000000000000000000000000000000000000000000000000000000000000000000000000EC
:405E00000000000000000000000000000000000000000000000000000000000000000000000000000000000000000000000000000000000000000000000000000000000062
:405E40000000000000000000000000000000000000000000000000000000000000000000000000000000000000000000000000000000000000000000000000000000000022
:405E800000000000000000000000000000000000000000000000000000000000000000000000000000000000000000000000000000000000000000000000000000000000E2
:405EC00000000000000000000000000000000000000000000000000000000000000000000000000000000000000000000000000000000000000000000000000000000000A2
:020000040003F7
:0200000480007A
:4000000001450040024F0040035200403602014015030140020501400107014001090140030B0140060C0140070D0140021501400217014002190140021B0140054001407D
:40004000124101400C42014006430140024401400A450140084601400947014008480140034901400E4C0140034D014002500140025101407E0201800A4B000401057C400F
:40008000020112022E023001340236014010410549FF4AFF4BFF4DA04F045018528058045A045B045C015D115F01604062C06440654066C068C06AC06CC06EC0C040C10589
:4000C000C601C720C824C9FFCAFFCBFFCDAFCE0FCF04D018DA04DD01DF01E040E2C0E440E540E6C0E8C0EAC0ECC0EEC007800E8015801C401D801E801F10404045804A02FD
:400100004E025140520277808710C010C210C480D011D218E291E204E880E004E004B308E204E8809801B201B820BE14D804DF010B0819201B088B048D20C202E291EA013A
:40014000EC10EA02EE03EA02EE03EA01EC103240330135083640CCF003100502501052025F408202874089088F0296809D089F01A640C030D4A0D620E280E6403E105B0225
:400180008010942096809B129F01A640B102CE20D640E220831096909B109F01A640E0207C10DE0101105310828089108C109410C002D404E008E2014508808098209E80CD
:4001C000B020B310D001E80508020B040F40810498209E80A480A508C20E25109610AA40AE40AF01C820EA40EEC0AA10B510EA8010801320168078207D0898209E80A1044D
:40020000A480A508A802AF44C40EDE03AB20B508EC080002080200EA03C000000300101704000700F80000004000000000000000C00000000003030000000000040000062B
:400240000200020000000000010011010700180100000000000000000000000000000000000000000000000000000000000000000000000000000000000000000000000047
:40028000000000000000000000000000000000000000000000000000000000000000000000000000000000000000000000000000000000000000000000000000000000003E
:4002C00000000000000000000000000000000000000000000000000000000000000000000000000000000000000000000000000000000000000000000000000000000000FE
:4003000000000000000000000000000000000000000000000000000000000000000000000000000000000000000000000000000000000000000000000000000000000000BD
:40034000000000000000000000000000000000000000000000000000000000000000000000000000000000000000000000000000000000000000000000000000000000007D
:0200000490006A
:0400000000004005B7
:0200000490105A
:04000000BC90ACAF55
:0200000490303A
:0200000067A6F1
:0200000490402A
:4000000000000000000000000000000000000000000000000000000000000000000000000000000000000000000000000000000000000000000000000000000000000000C0
:400040000000000000000000000000000000000000000000000000000000000000000000000000000000000000000000000000000000000000000000000000000000000080
:400080000000000000000000000000000000000000000000000000000000000000000000000000000000000000000000000000000000000000000000000000000000000040
:4000C0000000000000000000000000000000000000000000000000000000000000000000000000000000000000000000000000000000000000000000000000000000000000
:0200000490501A
:0C00000000012E16106900012E37780F49
:00000001FF